:020000040000fa
:080000000002040000000000f2
:020000040000fa
:040008002a030000c7
:020000040000fa
:04000c002a030000c3
:020000040000fa
:040010002a030000bf
:020000040000fa
:040014002a030000bb
:020000040000fa
:040018002a030000b7
:020000040000fa
:04001c002a030000b3
:020000040000fa
:040020002a030000af
:020000040000fa
:040024002a030000ab
:020000040000fa
:040028002a030000a7
:020000040000fa
:04002c002a030000a3
:020000040000fa
:040030002a0300009f
:020000040000fa
:040034002a0300009b
:020000040000fa
:040038002a03000097
:020000040000fa
:04003c002a03000093
:020000040000fa
:040040002a0300008f
:020000040000fa
:04004400c8020000ee
:020000040000fa
:040048002a03000087
:020000040000fa
:04004c002a03000083
:020000040000fa
:040050002a0300007f
:020000040000fa
:040054002a0300007b
:020000040000fa
:040058002a03000077
:020000040000fa
:04005c002a03000073
:020000040000fa
:040060002a0300006f
:020000040000fa
:040064002a0300006b
:020000040000fa
:040068002a03000067
:020000040000fa
:04006c002a03000063
:020000040000fa
:040070002a0300005f
:020000040000fa
:040074002a0300005b
:020000040000fa
:040078002a03000057
:020000040000fa
:04007c002a03000053
:020000040000fa
:040080002a0300004f
:020000040000fa
:040084002a0300004b
:020000040000fa
:040088002a03000047
:020000040000fa
:04008c002a03000043
:020000040000fa
:040090002a0300003f
:020000040000fa
:040094002a0300003b
:020000040000fa
:040098002a03000037
:020000040000fa
:04009c002a03000033
:020000040000fa
:0400a0002a0300002f
:020000040000fa
:0400a4002a0300002b
:020000040000fa
:0400a8002a03000027
:020000040000fa
:0400ac002a03000023
:020000040000fa
:0400b0002a0300001f
:020000040000fa
:0400b4002a0300001b
:020000040000fa
:0400b8002a03000017
:020000040000fa
:0400bc002a03000013
:020000040000fa
:0400c0002a0300000f
:020000040000fa
:0400c4002a0300000b
:020000040000fa
:0400c8002a03000007
:020000040000fa
:0400cc002a03000003
:020000040000fa
:0400d0002a030000ff
:020000040000fa
:0400d4002a030000fb
:020000040000fa
:0400d8002a030000f7
:020000040000fa
:0400dc002a030000f3
:020000040000fa
:0400e0002a030000ef
:020000040000fa
:0400e4002a030000eb
:020000040000fa
:0400e8002a030000e7
:020000040000fa
:0400ec002a030000e3
:020000040000fa
:0400f0002a030000df
:020000040000fa
:0400f4002a030000db
:020000040000fa
:0400f8002a030000d7
:020000040000fa
:0400fc002a030000d3
:020000040000fa
:040100002a030000ce
:020000040000fa
:040104002a030000ca
:020000040000fa
:040108002a030000c6
:020000040000fa
:04010c002a030000c2
:020000040000fa
:040110002a030000be
:020000040000fa
:040114002a030000ba
:020000040000fa
:040118002a030000b6
:020000040000fa
:04011c002a030000b2
:020000040000fa
:040120002a030000ae
:020000040000fa
:040124002a030000aa
:020000040000fa
:040128002a030000a6
:020000040000fa
:04012c002a030000a2
:020000040000fa
:040130002a0300009e
:020000040000fa
:040134002a0300009a
:020000040000fa
:040138002a03000096
:020000040000fa
:04013c002a03000092
:020000040000fa
:040140002a0300008e
:020000040000fa
:040144002a0300008a
:020000040000fa
:040148002a03000086
:020000040000fa
:04014c002a03000082
:020000040000fa
:040150002a0300007e
:020000040000fa
:040154002a0300007a
:020000040000fa
:040158002a03000076
:020000040000fa
:04015c002a03000072
:020000040000fa
:040160002a0300006e
:020000040000fa
:040164002a0300006a
:020000040000fa
:040208002a030000c5
:020000040000fa
:04020c002a030000c1
:020000040000fa
:040210002a030000bd
:020000040000fa
:040214002a030000b9
:020000040000fa
:040218002a030000b5
:020000040000fa
:04021c002a030000b1
:020000040000fa
:040220002a030000ad
:020000040000fa
:040224002a030000a9
:020000040000fa
:040228002a030000a5
:020000040000fa
:04022c002a030000a1
:020000040000fa
:040230002a0300009d
:020000040000fa
:040234002a03000099
:020000040000fa
:040238002a03000095
:020000040000fa
:04023c002a03000091
:020000040000fa
:040240002a0300008d
:020000040000fa
:040244002a03000089
:020000040000fa
:040248002a03000085
:020000040000fa
:04024c002a03000081
:020000040000fa
:040250002a0300007d
:020000040000fa
:040254002a03000079
:020000040000fa
:040258002a03000075
:020000040000fa
:04025c002a03000071
:020000040000fa
:040260002a0300006d
:020000040000fa
:040264002a03000069
:020000040000fa
:040268002a03000065
:020000040000fa
:04026c002a03000061
:020000040000fa
:040270002a0300005d
:020000040000fa
:040274002a03000059
:020000040000fa
:040278002a03000055
:020000040000fa
:04027c002a03000051
:020000040000fa
:040280002a0300004d
:020000040000fa
:040284002a03000049
:020000040000fa
:040288002a03000045
:020000040000fa
:04028c002a03000041
:020000040000fa
:040290002a0300003d
:020000040000fa
:040294002a03000039
:020000040000fa
:040298002a03000035
:020000040000fa
:04029c002a03000031
:020000040000fa
:0402a0002a0300002d
:020000040000fa
:0402a4002a03000029
:020000040000fa
:0402a8002a03000025
:020000040000fa
:0402ac002a03000021
:020000040000fa
:0402b0002a0300001d
:020000040000fa
:0402b4002a03000019
:020000040000fa
:0402b8002a03000015
:020000040000fa
:0402bc002a03000011
:020000040000fa
:0402c0002a0300000d
:020000040000fa
:0402c4002a03000009
:020000040000fa
:0402c8002a03000005
:020000040000fa
:0402cc002a03000001
:020000040000fa
:0402d0002a030000fd
:020000040000fa
:0402d4002a030000f9
:020000040000fa
:0402d8002a030000f5
:020000040000fa
:0402dc002a030000f1
:020000040000fa
:0402e0002a030000ed
:020000040000fa
:0402e4002a030000e9
:020000040000fa
:0402e8002a030000e5
:020000040000fa
:0402ec002a030000e1
:020000040000fa
:0402f0002a030000dd
:020000040000fa
:0402f4002a030000d9
:020000040000fa
:0402f8002a030000d5
:020000040000fa
:0402fc002a030000d1
:020000040000fa
:040300002a030000cc
:020000040000fa
:040304002a030000c8
:020000040000fa
:040308002a030000c4
:020000040000fa
:04030c002a030000c0
:020000040000fa
:040310002a030000bc
:020000040000fa
:040314002a030000b8
:020000040000fa
:040318002a030000b4
:020000040000fa
:04031c002a030000b0
:020000040000fa
:040320002a030000ac
:020000040000fa
:040324002a030000a8
:020000040000fa
:040328002a030000a4
:020000040000fa
:04032c002a030000a0
:020000040000fa
:040330002a0300009c
:020000040000fa
:040334002a03000098
:020000040000fa
:040338002a03000094
:020000040000fa
:04033c002a03000090
:020000040000fa
:040340002a0300008c
:020000040000fa
:040344002a03000088
:020000040000fa
:040348002a03000084
:020000040000fa
:04034c002a03000080
:020000040000fa
:040350002a0300007c
:020000040000fa
:040354002a03000078
:020000040000fa
:040358002a03000074
:020000040000fa
:04035c002a03000070
:020000040000fa
:040360002a0300006c
:020000040000fa
:040364002a03000068
:020000040000fa
:100400002f9520000e7f24000e01880000000000c0
:10041000000020000000e000020032000001200087
:100420002002880014000700ce0007000000e00052
:1004300003003a0000c9200001002000020037003c
:100440000000200001002000810f70000100320038
:1004500014000700000020000000e000020032004d
:100460000000020000000000400b0200000000003d
:100470000040da000000fe004440a900c002200055
:100480000000e0000300320000002000a00188000e
:100490004440a800000006008a1f78008b1f7800e7
:1004a0000000060091018800800478000000eb0045
:1004b0001a003700e284440032a0b4009905ba0063
:1004c000e284440032a0b4009906ba00e2844400f9
:1004d00032a0b4000006eb00476fde00fd07b2005b
:1004e000636ce10003003a00ebff07000000eb0043
:1004f0000a003700606ce10004003a00005deb0088
:100500008b05e900fdff3e00040037006168e10053
:10051000010032000086eb000b00070019c7ba008b
:100520001905ba000e04e00003003a000a00e000da
:10053000e0ff3a0000000600fe07b2009e018800be
:100540008a047800f5ff3700395dba008b05e900b1
:100550000c003200295dba008b05e900080032006a
:100560000c00e00003003a00e284440032a0b40032
:10057000f5ff370019ddba008b05e900faff3a00f4
:100580008904e800e184440032a0b40000000600c1
:100590003600f800809fbe00829fbe00849fbe0090
:1005a000869fbe003400f80000002000a0018800f3
:1005b0000200fa0084e0a900804280000000e00010
:1005c0001c00320080428000800078000e0078001d
:1005d00013040700e09420001e487800f0942000e7
:1005e0009e409000014878001111800000202000fa
:1005f000008060000000e00004003a00e094200069
:10060000104078000000fb002011880011118000cc
:1006100000202000008060000000e00004003a009c
:10062000f0942000104078000000fb0020118800aa
:100630005028ef000080fa003400f9004f03be009c
:100640004f02be004f01be004f00be003600f90051
:10065000004006000040da000000fe000a00fa0038
:10066000e20f500034003e00804a8000e10f50004d
:1006700003003200e20f500011003a000c00370076
:10068000032220000300e00001003a000040da00ed
:100690002002e200020035002822ef0021e2a8003b
:1006a0002342ab000d003a002342a8000b003700a4
:1006b000032320000300e00001003a000040da00bc
:1006c0003002e200020035003822ef0031e2a800db
:1006d0003342ab0001003a003342a80082017800a7
:1006e0000b0037003102fb00e10f500004003a001c
:1006f0002322ab00feff3a002411880003003700dc
:100700003322ab00feff3a00a41188008301e90008
:100710000300e000f3ff3a00e10f500003003a004d
:100720002302ab00feff32000b0037003302ab00a8
:10073000feff32000800370033002000b3bf9f00e7
:10074000c0bf9f00d1bf9f00e2bf9f006a805700db
:100750009f0007006fb99700020078000080fa0040
:100760000000060000000500889fbe000004be00d7
:10077000050037000000fb00890078001200070028
:10078000e10f400004003200384078000004e0002f
:10079000f8ff3a000000eb004f04be000000060026
:1007a000881f7800e1922000efff07000004780026
:1007b000e1922000a000200003000700080078005c
:1007c0004f04780000000600889fbe0001047800f6
:1007d000b80090008084eb000118a3003a003200ba
:1007e000180190000198a30002003a000200e00006
:1007f00035003a000190a000310498008004780090
:10080000f90fb2000200e00002003a002800900058
:10081000000c7800ea8f540005003a000178a3002c
:1008200003003a0088007800d0002000e6ff0700af
:1008300018009000d8009000810f50000b0032008b
:100840000000e800100498001800780009487800bb
:10085000000ce80011c0b30080942000014878002b
:10086000ea8f540018003a0005003700880078002d
:100870000940780017000700800478001200370054
:10088000380090000088a3000f003200180190008b
:10089000a80090004800900070ff070098009000aa
:1008a000810f500004003200380090000003b300b4
:1008b000300498008084eb000000eb0010049800e6
:1008c00028009000000c7800090078004f04be005a
:1008d000000006000200fa00889fbe00a0ff9f00f3
:1008e00001047800380090000068a30033003a004b
:1008f000e200600005003a000003b30030049800f5
:10090000110498000080eb002e003700d8049000fe
:100910000900e00006003a0012002000e6805700bf
:10092000480090004dff070019049800230037008d
:10093000a80090000100e00008003a00b1942000f7
:1009400021049800010c7800210020005104980037
:10095000110498000030a0003004980018019000a5
:10096000a8009000480090003cff0700280090007d
:100970008080eb0011049800aff8970001487800e0
:10098000000ce8002ff89700ea4f50000b003a00e7
:10099000380090000088a300080032001801900081
:1009a000a8009000480090002cff07000000eb001a
:1009b00010049800a8009000010c7800aff8970090
:1009c0000100fb004f04be000080fa00000006009a
:0809d00000c0da00000006007f
:020000040000fa
:1009d8005374000061720000742000004269000036
:1009e8007420000065720000726f00007200000041
:1009f8004461000074610000204200006974000036
:100a080020650000727200006f7200000050000044
:100a180061720000697400007920000065720000ae
:080a2800726f00007200000073
:020000040000fa
:100a30001200fa00889fbe008a9fbe008c9fbe00f5
:100a4000000f98004107980052079800640798002b
:100a5000750798006e009000fe009000490ddd00c3
:100a6000c705de008b0575004905dd004e009000ce
:100a7000700040001001be005e0090006400400065
:100a80001000be00009ab90004027800028eb9007e
:100a90008c027800050242000010b80001024200fa
:100aa000840078000005550081855d004e009000af
:100ab000740040001001be005e0090001000be00f7
:100ac000009ab90004027800028eb9008c02780006
:100ad000050242000010b8000102420084007800c4
:100ae0000000550081805d00008fbe001e00be002a
:100af000e00f5000e08f580002003d00f01fb000f2
:100b00000180b0004709dd004903de0006037100e3
:100b1000c98bde000600be00008fbe004e009000b4
:100b20001001be001e00be00009ab9000402780049
:100b3000028bb90086027800050242000011b8005d
:100b400003024200840178004e00900064004000df
:100b50001002be005e009000640040001000be0065
:100b600000abb90006037800048db9008a03780051
:100b7000070343000020b80001034300860078000b
:100b800002034000838348004e009000680040004c
:100b90001001be005e0090001000be00009ab90077
:100ba00004027800028db9008a0278000502420032
:100bb0000010b800010242008400780006004000e6
:100bc0008780480020079800310798002e00900089
:100bd000be009000e00f5000e08f580002003d0082
:100be000f01fb0000180b000470add004904de00bc
:100bf00008047200c98cde000800be0020079800bf
:100c0000310798003e02be002e03be008e08900001
:100c10008498be008690be000e0890004f06be006d
:100c20004f05be004f04be000080fa000000060021
:100c30003c00fa00889fbe008a9fbe008c9fbe00c9
:100c4000201f9800311f98006000b800008fbe0080
:100c50006000b80020079800310798006000b800d5
:100c600040079800510798006000b800600798009e
:100c7000710798006000b800000f9800110f9800ed
:100c8000740047002e1a9000be1a900002802000c7
:100c90002186200066ff070000802000b000900041
:100ca00020009000028020000089be002e089000e5
:100cb000be089000028020002001980031019800b9
:100cc0004e099000de099000028fbe001e009000c9
:100cd0006300b900000178001e0078006000b900d0
:100ce00000007800000141009e00780030002000e4
:100cf0000008b8000101410082007800e00f5000b8
:100d0000e08f580002003d00f01fb0000180b000ed
:100d10004709dd00c901de0083017100431f98000f
:100d2000c989de00531f98004e199000de1990000b
:100d3000028fbe007c0047001e02be0082802000a1
:100d4000a18720003aff070080802000b0009000bb
:100d500020009000828020000089be006e08900074
:100d6000fe08900082802000200198003101980048
:100d70000e1190009e1190002207980033079800f2
:100d80003e0090006300b900000178002e00900042
:100d90006000b9000000780000014100ae00900042
:100da000300020000008b8000101410082007800f6
:100db000e00f5000e08f580002003d00f01fb0002f
:100dc0000180b000c709dd004906de000c86710015
:100dd000c98ede002c0798003d07980040022000d5
:100de0000e0040002e029000be0290000281200002
:100df000218920000eff070000812000b000900034
:100e000020009000028120000089be002e1090007a
:100e1000be1090000281200020019800310198004e
:100e20004e119000de119000420798005307980081
:100e30005e0090006300b900000178004e00900051
:100e40006000b9000000780000014100ce00900071
:100e5000300020000008b800010141008200780045
:100e6000e00f5000e08f580002003d00f01fb0007e
:100e70000180b000c709dd004905de000a85710068
:100e8000c98dde004a0798005b079800c002200069
:100e90000e0040004e029000de0290008281200091
:100ea000a18a2000e2fe070080812000b0009000af
:100eb00020009000828120000089be006e1090000a
:100ec000fe109000828120002001980031019800de
:100ed0000e1990009e199000620798007307980001
:100ee0007e0090006300b900000178006e00900061
:100ef0006000b9000000780000014100ee009000a1
:100f0000300020000008b800010141008200780094
:100f1000e00f5000e08f580002003d00f01fb000cd
:100f20000180b000c709dd004904de0008847100bb
:100f3000c98cde0068079800790798006e00900061
:100f4000fe0090000020b0000180b000000f98006b
:100f5000110f98000e0890009e0890004f06be00ea
:100f60004f05be004f04be000080fa0000000600de
:100f70003c00fa00889fbe008a9fbe008c9fbe0086
:100f8000201f9800311f98006000b800008fbe003d
:100f90006000b80020079800310798006000b80092
:100fa00040079800510798006000b800600798005b
:100fb000710798006000b800000f9800110f9800aa
:100fc000740047002e1a9000be1a90000282200082
:100fd000218c200096fe070000822000b0009000c7
:100fe00020009000028220000089be002e089000a0
:100ff000be08900002822000200198003101980074
:101000004e099000de099000028fbe001e01be0056
:101010004218dd00ce10de00810070004210dd00bd
:10102000e00f5000e08f580002003d00f01fb000bc
:101030000180b0004709dd00c901de0083017100b5
:10104000431f9800c989de00531f98004e19900075
:10105000de199000028fbe007c0047001e02be0019
:1010600082822000a18d200071fe07008082200076
:10107000b000900020009000828220000089be0015
:101080006e089000fe0890008282200020019800e7
:10109000310198000e1190009e11900022079800d7
:1010a000330798002e019000be0190004218dd0029
:1010b000ce10de00810070004210dd00e00f500015
:1010c000e08f580002003d00f01fb0000180b0002a
:1010d000c709dd004906de000c867100c98ede00fe
:1010e0002c0798003d079800400220000e004000a9
:1010f0002e029000be02900002832000218f20006b
:101100004bfe070000832000b000900020009000fc
:10111000028320000089be002e109000be109000b7
:101120000283200020019800310198004e119000a8
:10113000de11900042079800530798004e0190007e
:10114000de0190004218dd00ce10de00810070004c
:101150004210dd00e00f5000e08f580002003d001b
:10116000f01fb0000180b000c709dd004905de00b6
:101170000a857100c98dde004a0798005b07980058
:10118000c00220000e0040004e029000de029000df
:1011900082832000a190200025fe0700808320008c
:1011a000b000900020009000828320000089be00e3
:1011b0006e109000fe1090008283200020019800a5
:1011c000310198000e1990009e1990006207980056
:1011d000730798006e019000fe0190004218dd0038
:1011e000ce10de00810070004210dd00e00f5000e4
:1011f000e08f580002003d00f01fb0000180b000f9
:10120000c709dd004904de0008847100c98cde00d6
:1012100068079800790798006e009000fe00900023
:101220000020b0000180b000000f9800110f98005e
:101230000e0890009e0890004f06be004f05be00ad
:101240004f04be000080fa00000006000800fa000b
:1012500020079800310798000000eb00000f78008d
:101260003e0090000000e00009003a002e009000cf
:101270000000e00003003a000000eb0010079800b7
:101280000b003700100020001007980008003700fe
:101290002e0090000000e00003003a002000200033
:1012a0001007980002003700300020001007980057
:1012b000a0428000e20f50003c003200e20f5000dc
:1012c00005003e000000e00008003200e10f500081
:1012d00015003200bb003700e30f50006e003200f3
:1012e000e40f5000a0003200b60037001e0090004e
:1012f000e10f5000b5003a0010002000a042880025
:1013000010002000b042880010002000c042880079
:101310005a28ef0090002000e04288005e28ef008d
:101320006028ef00b4003700b04280000000e80001
:10133000b04288001e009000e10f500003003a0008
:10134000c04280000000e800c04288001e009000fb
:10135000e20f500003003a00d04280000000e80095
:10136000d0428800b1428000f0042000808f5000fd
:1013700098003400c142800070022000808f50002d
:101380000600340020002000a04288005628ef000c
:101390005828ef005a28ef00970037005428ef0034
:1013a000c04e2800fefc070093003700b0428000ca
:1013b0000000e800b04288001e009000e10f5000dd
:1013c00003003a00c04280000000e800c0428800ec
:1013d0001e009000e20f500003003a00d04280004f
:1013e0000000e800d0428800b1428000f0042000f4
:1013f000808f500079003400c142800070022000cc
:10140000808f500007003400e04280000000e900b7
:10141000e04288005628ef005828ef005a28ef00d5
:1014200017003700d142800070022000808f5000ea
:1014300010003400e0428000110020008008dd0030
:10144000004380000100700000438800e0428000fb
:101450000000e900e0428800f04280000000e8005f
:10146000f04288005628ef005828ef005a28ef0075
:10147000030037005428ef00c04f2800c8fc0700c5
:10148000e04280000000e00056003d0030002000f7
:10149000a042880058003700b04280000000e800f9
:1014a000b04288001e009000e10f500003003a0097
:1014b000c04280000000e800c04288001e0090008a
:1014c000e20f500003003a00d04280000000e80024
:1014d000d0428800b1428000f0042000808f50008c
:1014e00042003400f042800061006000004078005b
:1014f0000004e0000e003200d142800070022000a3
:10150000808f50000600340040002000a042880078
:101510005628ef005828ef005a28ef003600370011
:101520005428ef00b05028009dfc0700320037001f
:10153000c142800070022000808f500006003400fd
:1015400040002000a04288005628ef005828ef00f5
:101550005a28ef00280037005428ef00b050280028
:101560008ffc070024003700b04280000000e80034
:10157000b04288001e009000e10f500003003a00c6
:10158000c04280000000e800c04288001e009000b9
:10159000e20f500003003a00d04280000000e80053
:1015a000d0428800b1428000f0042000808f5000bb
:1015b0001000340010002000000f78005428ef00c5
:1015c0000d0037005428ef000b003700000000002a
:1015d000090037000000000007003700000000008d
:1015e0000500370000000000030037000000000085
:1015f00001003700000000001e0078000000e0003d
:10160000040032000000eb00000f7800004380006f
:10161000010037000000eb000080fa000000060027
:101620000800fa00310798003e01900001302000c8
:10163000010f61009e007800c888de00010f78006d
:101640003e019000f10f2000810061001107980019
:101650009e00780081407800414798009e009000ed
:101660008140780051479800ce40900001487800b2
:10167000de409000114098000080fa000000060053
:101680001600fa000000eb00000f780040c1b30024
:101690005047980080252000010020003007980066
:1016a0004107980000192000010020005007980011
:1016b0006107980080252000010020007007980035
:1016c000010f98000019200001002000100f980061
:1016d000210f98000040eb00204798000040eb00ed
:1016e000304798000040eb00404798001801070081
:1016f000f200070000352c006008880011e1a80006
:10170000409c20007008880013e1a800c802a800cf
:10171000c8c2a90040012000401188002062a90031
:1017200021e2a8000111800090ff2f0000806000de
:10173000001188002002a9002342a8002135800062
:1017400000fe2f00008060006000b300203588009c
:1017500031368000f00f2e008080600000302000c5
:10176000010070003036880081e0a8008500a900e3
:1017700084e0a90094e0a800010037000000000008
:101780002104800000102000008060000000e000c4
:10179000450032008500a90000000000da000700c3
:1017a0000000e000fdff3200de000700cf80de0019
:1017b00060428800714288001e0fe800604280008d
:1017c000714280000000780019fd0700cf80de0024
:1017d00020428800314288006042800071428000cf
:1017e00000007800e2fd0700cf80de004042880064
:1017f0005142880022428000334280001e0890003f
:10180000ae089000800f5100818f590004003c0009
:101810003e4090000040e800304798001500370037
:1018200022428000334280007e0090008e089000ab
:10183000800f5100818f5900040035003e40900018
:101840000040e800304798000a003700424280001c
:10185000534280005e009000ee009000800f510027
:10186000818f590003003c002e4090000040e800aa
:101870002047980042428000534280003e00900082
:10188000ce009000800f5100818f59000300350079
:101890002e4090000040e800204798004e40900005
:1018a0000040e80040479800ce4090005e40900025
:1018b00080cf5000b1ff3a000040eb004047980055
:1018c0003e409000e14f5000030034001000200023
:1018d00000428800010037004028ef002e409000b1
:1018e000e14f500003003400100020001042880037
:1018f000010037004228ef000040eb00304798001d
:101900000040eb00204798005028ef001142800073
:10191000004280004dfe07008042880098ff37009b
:020000040000fa
:101920004e09000002000000000000004008000016
:10193000140000000000000062080000c000000069
:10194000020000000002000000000400000000008f
:1019500002000000000200000046fc00fffffa0049
:101960000100000000020000000004000000000070
:1019700002000000000200000044fc00fffffa002b
:1019800001000000000200000000fc00ffff00005a
:1019900002000000000200000044fc00fffffd0008
:1019a00001000000000200000000fc00ffff00003a
:1019b00002000000000200000040fc00fffffd00ec
:1019c0000100000000020000000004000000000010
:1019d00002000000000200000066fc00fffff900aa
:1019e00001000000000200000000040000000000f0
:1019f00002000000000200000063fc00fffff9008d
:101a000001000000000200000000fc00ffff0000d9
:101a100002000000000200000064fc00fffffd0067
:101a200001000000000200000000fc00ffff0000b9
:101a30000200000000020000005efc00fffffd004d
:101a4000010000000008000040000000000000004d
:101a5000540800000e0000000000000022090000f1
:101a600026000000020000004909000000490900aa
:101a700009000000000200004b090000004b0900b3
:101a80000e02010000000000000000000000000045
:101a900006020200000000002209000048090000c0
:101aa00006000000000000005009000002000000d5
:0c1ab00002000000010000000000000027
:020000040000fa
:101abc000000fa002143a90050c0b30024e3b70092
:101acc002043a8003003a8002c03a90001198000b2
:101adc00f0f12f00008060000060a0000019880069
:101aec0021e3a8000080fa00000006000000fa00c4
:101afc002023a9000080fa00000006000000fa0074
:101b0c000019800000407800614060000080fb00fc
:101b1c000080fa00000006000000fa0000198000a6
:101b2c00610060000000e000030032002003a90007
:101b3c000018800001003700000028000080fa0027
:101b4c00000006000000fa00e0012000303a880096
:101b5c00213a8000f0f32f0000806000203a8800ca
:101b6c00213a800000fe2f0000806000203a88009f
:101b7c003200200080072000a109200033742000cf
:101b8c008049780081497800824978001200200051
:101b9c006004200071052000237420008049780027
:101bac00814978008249780000000000113a8000d9
:101bbc00000027008080600000002300808f500010
:0c1bcc00faff3a000080fa00000006005a
:020000040000fa
:0200000401f009
:04000c008000000070
:020000040000fa
:0200000401f009
:040010006600000086
:020000040000fa
:0200000401f009
:040014005f00000089
:020000040000fa
:0200000401f009
:04001c00dfff000002
:00000001FF
