:020000040000fa
:080000000002040000000000f2
:020000040000fa
:04000800d20300001f
:020000040000fa
:04000c00d20300001b
:020000040000fa
:04001000d203000017
:020000040000fa
:04001400d203000013
:020000040000fa
:04001800d20300000f
:020000040000fa
:04001c00d20300000b
:020000040000fa
:04002000d203000007
:020000040000fa
:04002400d203000003
:020000040000fa
:04002800d2030000ff
:020000040000fa
:04002c00d2030000fb
:020000040000fa
:04003000d2030000f7
:020000040000fa
:04003400d2030000f3
:020000040000fa
:04003800d2030000ef
:020000040000fa
:04003c00d2030000eb
:020000040000fa
:04004000d2030000e7
:020000040000fa
:04004400c8020000ee
:020000040000fa
:04004800d2030000df
:020000040000fa
:04004c00d2030000db
:020000040000fa
:04005000d2030000d7
:020000040000fa
:04005400d2030000d3
:020000040000fa
:04005800d2030000cf
:020000040000fa
:04005c00d2030000cb
:020000040000fa
:04006000d2030000c7
:020000040000fa
:04006400d2030000c3
:020000040000fa
:04006800d2030000bf
:020000040000fa
:04006c00d2030000bb
:020000040000fa
:04007000d2030000b7
:020000040000fa
:04007400d2030000b3
:020000040000fa
:04007800d2030000af
:020000040000fa
:04007c00d2030000ab
:020000040000fa
:04008000d2030000a7
:020000040000fa
:04008400d2030000a3
:020000040000fa
:04008800d20300009f
:020000040000fa
:04008c00d20300009b
:020000040000fa
:04009000d203000097
:020000040000fa
:04009400d203000093
:020000040000fa
:04009800d20300008f
:020000040000fa
:04009c00d20300008b
:020000040000fa
:0400a000d203000087
:020000040000fa
:0400a400d203000083
:020000040000fa
:0400a800d20300007f
:020000040000fa
:0400ac00d20300007b
:020000040000fa
:0400b000d203000077
:020000040000fa
:0400b400d203000073
:020000040000fa
:0400b800d20300006f
:020000040000fa
:0400bc00d20300006b
:020000040000fa
:0400c000d203000067
:020000040000fa
:0400c400d203000063
:020000040000fa
:0400c800d20300005f
:020000040000fa
:0400cc00d20300005b
:020000040000fa
:0400d000d203000057
:020000040000fa
:0400d400d203000053
:020000040000fa
:0400d800d20300004f
:020000040000fa
:0400dc00d20300004b
:020000040000fa
:0400e000d203000047
:020000040000fa
:0400e400d203000043
:020000040000fa
:0400e800d20300003f
:020000040000fa
:0400ec00d20300003b
:020000040000fa
:0400f000d203000037
:020000040000fa
:0400f400d203000033
:020000040000fa
:0400f800d20300002f
:020000040000fa
:0400fc00d20300002b
:020000040000fa
:04010000d203000026
:020000040000fa
:04010400d203000022
:020000040000fa
:04010800d20300001e
:020000040000fa
:04010c00d20300001a
:020000040000fa
:04011000d203000016
:020000040000fa
:04011400d203000012
:020000040000fa
:04011800d20300000e
:020000040000fa
:04011c00d20300000a
:020000040000fa
:04012000d203000006
:020000040000fa
:04012400d203000002
:020000040000fa
:04012800d2030000fe
:020000040000fa
:04012c00d2030000fa
:020000040000fa
:04013000d2030000f6
:020000040000fa
:04013400d2030000f2
:020000040000fa
:04013800d2030000ee
:020000040000fa
:04013c00d2030000ea
:020000040000fa
:04014000d2030000e6
:020000040000fa
:04014400d2030000e2
:020000040000fa
:04014800d2030000de
:020000040000fa
:04014c00d2030000da
:020000040000fa
:04015000d2030000d6
:020000040000fa
:04015400d2030000d2
:020000040000fa
:04015800d2030000ce
:020000040000fa
:04015c00d2030000ca
:020000040000fa
:04016000d2030000c6
:020000040000fa
:04016400d2030000c2
:020000040000fa
:04020800d20300001d
:020000040000fa
:04020c00d203000019
:020000040000fa
:04021000d203000015
:020000040000fa
:04021400d203000011
:020000040000fa
:04021800d20300000d
:020000040000fa
:04021c00d203000009
:020000040000fa
:04022000d203000005
:020000040000fa
:04022400d203000001
:020000040000fa
:04022800d2030000fd
:020000040000fa
:04022c00d2030000f9
:020000040000fa
:04023000d2030000f5
:020000040000fa
:04023400d2030000f1
:020000040000fa
:04023800d2030000ed
:020000040000fa
:04023c00d2030000e9
:020000040000fa
:04024000d2030000e5
:020000040000fa
:04024400d2030000e1
:020000040000fa
:04024800d2030000dd
:020000040000fa
:04024c00d2030000d9
:020000040000fa
:04025000d2030000d5
:020000040000fa
:04025400d2030000d1
:020000040000fa
:04025800d2030000cd
:020000040000fa
:04025c00d2030000c9
:020000040000fa
:04026000d2030000c5
:020000040000fa
:04026400d2030000c1
:020000040000fa
:04026800d2030000bd
:020000040000fa
:04026c00d2030000b9
:020000040000fa
:04027000d2030000b5
:020000040000fa
:04027400d2030000b1
:020000040000fa
:04027800d2030000ad
:020000040000fa
:04027c00d2030000a9
:020000040000fa
:04028000d2030000a5
:020000040000fa
:04028400d2030000a1
:020000040000fa
:04028800d20300009d
:020000040000fa
:04028c00d203000099
:020000040000fa
:04029000d203000095
:020000040000fa
:04029400d203000091
:020000040000fa
:04029800d20300008d
:020000040000fa
:04029c00d203000089
:020000040000fa
:0402a000d203000085
:020000040000fa
:0402a400d203000081
:020000040000fa
:0402a800d20300007d
:020000040000fa
:0402ac00d203000079
:020000040000fa
:0402b000d203000075
:020000040000fa
:0402b400d203000071
:020000040000fa
:0402b800d20300006d
:020000040000fa
:0402bc00d203000069
:020000040000fa
:0402c000d203000065
:020000040000fa
:0402c400d203000061
:020000040000fa
:0402c800d20300005d
:020000040000fa
:0402cc00d203000059
:020000040000fa
:0402d000d203000055
:020000040000fa
:0402d400d203000051
:020000040000fa
:0402d800d20300004d
:020000040000fa
:0402dc00d203000049
:020000040000fa
:0402e000d203000045
:020000040000fa
:0402e400d203000041
:020000040000fa
:0402e800d20300003d
:020000040000fa
:0402ec00d203000039
:020000040000fa
:0402f000d203000035
:020000040000fa
:0402f400d203000031
:020000040000fa
:0402f800d20300002d
:020000040000fa
:0402fc00d203000029
:020000040000fa
:04030000d203000024
:020000040000fa
:04030400d203000020
:020000040000fa
:04030800d20300001c
:020000040000fa
:04030c00d203000018
:020000040000fa
:04031000d203000014
:020000040000fa
:04031400d203000010
:020000040000fa
:04031800d20300000c
:020000040000fa
:04031c00d203000008
:020000040000fa
:04032000d203000004
:020000040000fa
:04032400d203000000
:020000040000fa
:04032800d2030000fc
:020000040000fa
:04032c00d2030000f8
:020000040000fa
:04033000d2030000f4
:020000040000fa
:04033400d2030000f0
:020000040000fa
:04033800d2030000ec
:020000040000fa
:04033c00d2030000e8
:020000040000fa
:04034000d2030000e4
:020000040000fa
:04034400d2030000e0
:020000040000fa
:04034800d2030000dc
:020000040000fa
:04034c00d2030000d8
:020000040000fa
:04035000d2030000d4
:020000040000fa
:04035400d2030000d0
:020000040000fa
:04035800d2030000cc
:020000040000fa
:04035c00d2030000c8
:020000040000fa
:04036000d2030000c4
:020000040000fa
:04036400d2030000c0
:020000040000fa
:100400002f9520000e7f24000e01880000000000c0
:10041000000020000000e000020032000001200087
:100420002002880014000700220107000000e000fd
:1004300003003a0020bc2000010020000200370029
:100440000000200001002000810f70000100320038
:1004500014000700000020000000e000020032004d
:100460000000020000000000c80c020000000000b4
:100470000040da000000fe004440a900c003200054
:100480000000e0000300320000002000a00188000e
:100490004440a800000006008a1f78008b1f7800e7
:1004a0000000060091018800800478000000eb0045
:1004b0001a003700e284440032a0b4009905ba0063
:1004c000e284440032a0b4009906ba00e2844400f9
:1004d00032a0b4000006eb00476fde00fd07b2005b
:1004e000636ce10003003a00ebff07000000eb0043
:1004f0000a003700606ce10004003a00005deb0088
:100500008b05e900fdff3e00040037006168e10053
:10051000010032000086eb000b00070019c7ba008b
:100520001905ba000e04e00003003a000a00e000da
:10053000e0ff3a0000000600fe07b2009e018800be
:100540008a047800f5ff3700395dba008b05e900b1
:100550000c003200295dba008b05e900080032006a
:100560000c00e00003003a00e284440032a0b40032
:10057000f5ff370019ddba008b05e900faff3a00f4
:100580008904e800e184440032a0b40000000600c1
:100590003600f800809fbe00829fbe00849fbe0090
:1005a000869fbe003400f80000002000a0018800f3
:1005b0000200fa00704280000000e80070428800eb
:1005c00084e0a9004c28ef0070428000ea0f500040
:1005d0000400320070428000fe0f500023003a00f9
:1005e00001003700000000001111800000202000f1
:1005f000008060000000e000fbff3a0020032000c4
:100600006042880060428000800078000e00780020
:10061000c7040700e09420001e487800f0942000f2
:100620009e40900001487800e0942000104078003f
:1006300050e8b700e0942000104078000000fb0074
:10064000201188000000000011118000002020000f
:10065000008060000000e000fbff3a00f094200002
:10066000104078000000fb002011880070428000dc
:10067000f40f50001f003a00401b20006042880029
:1006800060428000800078000e007800a804070017
:10069000e09420001e487800f09420009e409000d6
:1006a00001487800000000001111800000202000a7
:1006b000008060000000e000fbff3a00e0942000b2
:1006c000104078000000fb002011880000000000ae
:1006d0001111800000202000008060000000e00078
:1006e000fbff3a00f0942000104078000000fb006f
:1006f000201188007142800080022000808f50000d
:1007000020003a004e28ef00402b20006042880075
:1007100060428000800078000e00780084040700aa
:10072000e09420001e487800f09420009e40900045
:100730000148780000000000111180000020200016
:10074000008060000000e000fbff3a00e094200021
:10075000104078000000fb0020118800000000001d
:100760001111800000202000008060000000e000e7
:10077000fbff3a00f0942000104078000000fb00de
:10078000201188000080fa003400f9004f03be00f9
:100790004f02be004f01be004f00be003600f90000
:1007a000004006000040da000000fe000a00fa00e7
:1007b000e20f500034003e00804a8000e10f5000fc
:1007c00003003200e20f500011003a000c00370025
:1007d000032220000300e00001003a000040da009c
:1007e0002002e200020035002822ef0021e2a800ea
:1007f0002342ab000d003a002342a8000b00370053
:10080000032320000300e00001003a000040da006a
:100810003002e200020035003822ef0031e2a80089
:100820003342ab0001003a003342a8008201780055
:100830000b0037003102fb00e10f500004003a00ca
:100840002322ab00feff3a0024118800030037008a
:100850003322ab00feff3a00a41188008301e900b7
:100860000300e000f3ff3a00e10f500003003a00fc
:100870002302ab00feff32000b0037003302ab0057
:10088000feff32000800370033002000b3bf9f0096
:10089000c0bf9f00d1bf9f00e2bf9f006a8057008a
:1008a0009f0007006fb99700020078000080fa00ef
:1008b0000000060000000500889fbe000004be0086
:1008c000050037000000fb008900780012000700d7
:1008d000e10f400004003200384078000004e000de
:1008e000f8ff3a000000eb004f04be0000000600d5
:1008f000881f7800e1922000efff070000047800d5
:10090000e1922000a000200003000700080078000a
:100910004f04780000000600889fbe0001047800a4
:10092000b80090008084eb000118a3003a00320068
:10093000180190000198a30002003a000200e000b4
:1009400035003a000190a00031049800800478003e
:10095000f90fb2000200e00002003a002800900007
:10096000000c7800ea8f540005003a000178a300db
:1009700003003a0088007800d0002000e6ff07005e
:1009800018009000d8009000810f50000b0032003a
:100990000000e8001004980018007800094878006a
:1009a000000ce80011c0b3008094200001487800da
:1009b000ea8f540018003a000500370088007800dc
:1009c0000940780017000700800478001200370003
:1009d000380090000088a3000f003200180190003a
:1009e000a80090004800900070ff07009800900059
:1009f000810f500004003200380090000003b30063
:100a0000300498008084eb000000eb001004980094
:100a100028009000000c7800090078004f04be0008
:100a2000000006000200fa00889fbe00a0ff9f00a1
:100a300001047800380090000068a30033003a00f9
:100a4000e200600005003a000003b30030049800a3
:100a5000110498000080eb002e003700d8049000ad
:100a60000900e00006003a0012002000e68057006e
:100a7000480090004dff070019049800230037003c
:100a8000a80090000100e00008003a00b1942000a6
:100a900021049800010c78002100200051049800e6
:100aa000110498000030a000300498001801900054
:100ab000a8009000480090003cff0700280090002c
:100ac0008080eb0011049800aff89700014878008f
:100ad000000ce8002ff89700ea4f50000b003a0096
:100ae000380090000088a300080032001801900030
:100af000a8009000480090002cff07000000eb00c9
:100b000010049800a8009000010c7800aff897003e
:100b10000100fb004f04be000080fa000000060048
:080b200000c0da00000006002d
:020000040000fa
:100b280053740000617200007420000042690000e4
:100b38007420000065720000726f000072000000ef
:100b480044610000746100002042000069740000e4
:100b580020650000727200006f72000000500000f3
:100b6800617200006974000079200000657200005d
:100b7800726f000072000000537400006f70000074
:100b880020420000697400002065000072720000b5
:080b98006f7200000000000074
:020000040000fa
:100ba0001200fa00889fbe008a9fbe008c9fbe0084
:100bb000000f9800410798005207980064079800ba
:100bc000750798006e009000fe009000490ddd0052
:100bd000c705de008b0575004905dd004e0090005d
:100be000700040001001be005e00900064004000f4
:100bf0001000be00009ab90004027800028eb9000d
:100c00008c027800050242000010b8000102420088
:100c1000840078000005550081855d004e0090003d
:100c2000740040001001be005e0090001000be0085
:100c3000009ab90004027800028eb9008c02780094
:100c4000050242000010b800010242008400780052
:100c50000000550081805d00008fbe001e00be00b8
:100c6000e00f5000e08f580002003d00f01fb00080
:100c70000180b0004709dd004903de000603710072
:100c8000c98bde000600be00008fbe004e00900043
:100c90001001be001e00be00009ab90004027800d8
:100ca000028bb90086027800050242000011b800ec
:100cb00003024200840178004e009000640040006e
:100cc0001002be005e009000640040001000be00f4
:100cd00000abb90006037800048db9008a037800e0
:100ce000070343000020b80001034300860078009a
:100cf00002034000838348004e00900068004000db
:100d00001001be005e0090001000be00009ab90005
:100d100004027800028db9008a02780005024200c0
:100d20000010b80001024200840078000600400074
:100d30008780480020079800310798002e00900017
:100d4000be009000e00f5000e08f580002003d0010
:100d5000f01fb0000180b000470add004904de004a
:100d600008047200c98cde000800be00200798004d
:100d7000310798003e02be002e03be008e08900090
:100d80008498be008690be000e0890004f06be00fc
:100d90004f05be004f04be000080fa0000000600b0
:100da0003c00fa00889fbe008a9fbe008c9fbe0058
:100db000201f9800311f98006000b800008fbe000f
:100dc0006000b80020079800310798006000b80064
:100dd00040079800510798006000b800600798002d
:100de000710798006000b800000f9800110f98007c
:100df000740047002e1a9000be1a90000282200054
:100e00002186200066ff070000822000b0009000cd
:100e100020009000028220000089be002e08900071
:100e2000be08900002822000200198003101980045
:100e30004e099000de099000028fbe001e00900057
:100e40006300b900000178001e0078006000b9005e
:100e500000007800000141009e0078003000200072
:100e60000008b8000101410082007800e00f500046
:100e7000e08f580002003d00f01fb0000180b0007c
:100e80004709dd00c901de0083017100431f98009e
:100e9000c989de00531f98004e199000de1990009a
:100ea000028fbe007c0047001e02be00828220002e
:100eb000a18720003aff070080822000b000900048
:100ec00020009000828220000089be006e08900001
:100ed000fe089000828220002001980031019800d5
:100ee0000e1190009e119000220798003307980081
:100ef0003e0090006300b900000178002e009000d1
:100f00006000b9000000780000014100ae009000d0
:100f1000300020000008b800010141008200780084
:100f2000e00f5000e08f580002003d00f01fb000bd
:100f30000180b000c709dd004906de000c867100a3
:100f4000c98ede002c0798003d0798004002200063
:100f50000e0040002e029000be029000028320008e
:100f6000218920000eff070000832000b0009000c0
:100f700020009000028320000089be002e10900007
:100f8000be109000028320002001980031019800db
:100f90004e119000de119000420798005307980010
:100fa0005e0090006300b900000178004e009000e0
:100fb0006000b9000000780000014100ce00900000
:100fc000300020000008b8000101410082007800d4
:100fd000e00f5000e08f580002003d00f01fb0000d
:100fe0000180b000c709dd004905de000a857100f7
:100ff000c98dde004a0798005b079800c0022000f8
:101000000e0040004e029000de029000828320001d
:10101000a18a2000e2fe070080832000b00090003b
:1010200020009000828320000089be006e10900096
:10103000fe1090008283200020019800310198006a
:101040000e1990009e19900062079800730798008f
:101050007e0090006300b900000178006e009000ef
:101060006000b9000000780000014100ee0090002f
:10107000300020000008b800010141008200780023
:10108000e00f5000e08f580002003d00f01fb0005c
:101090000180b000c709dd004904de00088471004a
:1010a000c98cde0068079800790798006e009000f0
:1010b000fe0090000020b0000180b000000f9800fa
:1010c000110f98000e0890009e0890004f06be0079
:1010d0004f05be004f04be000080fa00000006006d
:1010e0003c00fa00889fbe008a9fbe008c9fbe0015
:1010f000201f9800311f98006000b800008fbe00cc
:101100006000b80020079800310798006000b80020
:1011100040079800510798006000b80060079800e9
:10112000710798006000b800000f9800110f980038
:10113000740047002e1a9000be1a90000280200012
:10114000218c200096fe070000802000b000900057
:1011500020009000028020000089be002e08900030
:10116000be08900002802000200198003101980004
:101170004e099000de099000028fbe001e01be00e5
:101180004218dd00ce10de00810070004210dd004c
:10119000e00f5000e08f580002003d00f01fb0004b
:1011a0000180b0004709dd00c901de008301710044
:1011b000431f9800c989de00531f98004e19900004
:1011c000de199000028fbe007c0047001e02be00a8
:1011d00082802000a18d200071fe07008080200009
:1011e000b000900020009000828020000089be00a6
:1011f0006e089000fe089000828020002001980078
:10120000310198000e1190009e1190002207980065
:10121000330798002e019000be0190004218dd00b7
:10122000ce10de00810070004210dd00e00f5000a3
:10123000e08f580002003d00f01fb0000180b000b8
:10124000c709dd004906de000c867100c98ede008c
:101250002c0798003d079800400220000e00400037
:101260002e029000be02900002812000218f2000fb
:101270004bfe070000812000b0009000200090008d
:10128000028120000089be002e109000be10900048
:101290000281200020019800310198004e11900039
:1012a000de11900042079800530798004e0190000d
:1012b000de0190004218dd00ce10de0081007000db
:1012c0004210dd00e00f5000e08f580002003d00aa
:1012d000f01fb0000180b000c709dd004905de0045
:1012e0000a857100c98dde004a0798005b079800e7
:1012f000c00220000e0040004e029000de0290006e
:1013000082812000a190200025fe0700808120001e
:10131000b000900020009000828120000089be0073
:101320006e109000fe109000828120002001980035
:10133000310198000e1990009e19900062079800e4
:10134000730798006e019000fe0190004218dd00c6
:10135000ce10de00810070004210dd00e00f500072
:10136000e08f580002003d00f01fb0000180b00087
:10137000c709dd004904de0008847100c98cde0065
:1013800068079800790798006e009000fe009000b2
:101390000020b0000180b000000f9800110f9800ed
:1013a0000e0890009e0890004f06be004f05be003c
:1013b0004f04be000080fa00000006000800fa009a
:1013c00020079800310798000000eb00000f78001c
:1013d0003e0090000000e00009003a002e0090005e
:1013e0000000e00003003a000000eb001007980046
:1013f0000b0037001000200010079800080037008d
:101400002e0090000000e00003003a0020002000c1
:1014100010079800020037003000200010079800e5
:1014200090428000e20f50003a003200e20f50007c
:1014300005003e000000e00008003200e10f50000f
:1014400015003200b8003700e30f50006900320089
:10145000e40f500098003200b30037001e009000e7
:10146000e10f5000b2003a001000200090428800c6
:1014700010002000a042880010002000b042880028
:101480005828ef0090002000d04288005c28ef0030
:101490005e28ef00b1003700a04280000000e800a5
:1014a000a04288001e009000e10f500003003a00a7
:1014b000b04280000000e800b04288001e009000aa
:1014c000e20f500003003a00c04280000000e80034
:1014d000c0428800a0428000f30f50009600340004
:1014e000b0428000ee0f50000600340020002000c3
:1014f000904288005428ef005628ef005828ef004b
:10150000960037005228ef0040592800f8fc0700e9
:1015100092003700a04280000000e800a04288004e
:101520001e009000e10f500003003a00b04280001e
:101530000000e800b04288001e009000e20f50005a
:1015400003003a00c04280000000e800c04288006a
:10155000a0428000f30f500079003400b0428000b8
:10156000ee0f500007003400d04280000000e90078
:10157000d04288005428ef005628ef005828ef008a
:1015800016003700c0428000ee0f500010003400fb
:10159000d0428000110020008008dd00f042800071
:1015a00001007000f0428800d04280000000e90095
:1015b000d0428800e04280000000e800e04288005d
:1015c0005428ef005628ef005828ef00030037009a
:1015d0005228ef00405a2800c5fc0700d042800086
:1015e0000000e00058003d003000200090428800dc
:1015f0005a003700a04280000000e800a0428800a6
:101600001e009000e10f500003003a00b04280003d
:101610000000e800b04288001e009000e20f500079
:1016200003003a00c04280000000e800c042880089
:10163000a0428000f30f500045003400e0428000db
:1016400061006000004078000004e0000d003200fe
:10165000c0428000ee0f5000060034004000200021
:10166000904288005428ef005628ef005828ef00d9
:101670003a0037005228ef00305b28009cfc07003e
:1016800036003700b0428000ee0f500006003400f4
:1016900040002000904288005428ef005628ef00b8
:1016a0005828ef002d0037005228ef00305b28004b
:1016b0008ffc070029003700a04280000000e800ee
:1016c000a04288001e009000e10f500003003a0085
:1016d000b04280000000e800b04288001e00900088
:1016e000e20f500003003a00c04280000000e80012
:1016f000c0428800a0428000f30f50001600340062
:10170000b0428000ee0f50000300340010002000b3
:10171000000f780002003700005c280074fc07000e
:101720005228ef000d0037005228ef000b00370061
:10173000000000000900370000000000070037002b
:101740000000000005003700000000000300370023
:101750000000000001003700000000001e007800bb
:101760000000e000040032000000eb00000f7800f1
:10177000f0428000010037000000eb000080fa001a
:04178000000006005f
:020000040000fa
:101784004e09000002000000000000006008000094
:101794000200000002000000303000004008000099
:1017a400120000000000000062080000c0000000f9
:1017b400020000000002000000000400000000001d
:1017c40002000000000200000046fc00fffffa00d7
:1017d40001000000000200000000040000000000fe
:1017e40002000000000200000044fc00fffffa00b9
:1017f40001000000000200000000fc00ffff0000e8
:1018040002000000000200000044fc00fffffd0095
:1018140001000000000200000000fc00ffff0000c7
:1018240002000000000200000040fc00fffffd0079
:10183400010000000002000000000400000000009d
:1018440002000000000200000066fc00fffff90037
:10185400010000000002000000000400000000007d
:1018640002000000000200000063fc00fffff9001a
:1018740001000000000200000000fc00ffff000067
:1018840002000000000200000064fc00fffffd00f5
:1018940001000000000200000000fc00ffff000047
:1018a4000200000000020000005efc00fffffd00db
:1018b40001000000000800004000000000000000db
:1018c400520800000e000000000000002209000081
:1018d4002600000002000000490900000049090038
:1018e40009000000000200004b090000004b090041
:1018f4000e020100000000000000000000000000d3
:10190400060202000000000022090000480900004d
:101914000600000000000000500900000200000062
:0c192400020000000100000000000000b4
:020000040000fa
:101930000800fa00310798003e01900001302000b5
:10194000010f61009e007800c888de00010f78005a
:101950003e019000f10f2000810061001107980006
:101960009e00780081407800414798009e009000da
:101970008140780051479800ce409000014878009f
:10198000de409000114098000080fa000000060040
:101990001600fa0040c1b300004f7800004b200051
:1019a00001002000100798002107980080f32f0005
:1019b000f1ff2f0030079800410798008025200094
:1019c00001002000500798006107980000192000ce
:1019d0000100200070079800010f98000040eb0004
:1019e000205798000040eb00305798000040eb0073
:1019f000405798004c000700260007000080eb00cd
:101a00006008880081088000000320000100700049
:101a10008008880011e1a800a00f2000700888004d
:101a200013e1a800c802a800c8c2a9004001200014
:101a3000401188002062a90021e2a8000111800065
:101a400090ff2f0000806000001188002002a90094
:101a50002342a8002135800000fe2f000080600096
:101a60006000b3002035880031368000f00f2e0072
:101a70008080600000302000010070003036880057
:101a800081e0a8008500a90084e0a90094e0a800f6
:101a9000ffff37000000fa002143a90050c0b30047
:101aa00024e3b7002043a8003003a8002c03a900ba
:101ab00001198000f0f12f00008060000060a0009c
:101ac0000019880021e3a8000080fa000000060049
:101ad0000000fa002023a9000080fa0000000600a0
:101ae0000000fa00001980000040780061406000aa
:101af0000080fb000080fa00000006000000fa00f1
:101b000000198000610060000000e0000300320066
:101b10002003a90000188000010037000000280001
:101b20000080fa00000006000000fa00e00120003a
:101b3000303a8800213a8000f0f32f0000806000e6
:101b4000203a8800213a800000fe2f0000806000cb
:101b5000203a88003200200080072000a1092000e0
:101b600033742000804978008149780082497800e8
:101b70001200200060042000710520002374200062
:101b8000804978008149780082497800000000008f
:101b9000113a8000000027008080600000002300d0
:101ba000808f5000faff3a000080fa000000060023
:020000040000fa
:0200000401f009
:04000c008000000070
:020000040000fa
:0200000401f009
:040010006600000086
:020000040000fa
:0200000401f009
:040014005f00000089
:020000040000fa
:0200000401f009
:04001c00dfff000002
:00000001FF
