:020000040000fa
:080000000002040000000000f2
:020000040000fa
:04000800c80200002a
:020000040000fa
:04000c00c802000026
:020000040000fa
:04001000c802000022
:020000040000fa
:04001400c80200001e
:020000040000fa
:04001800c80200001a
:020000040000fa
:04001c00c802000016
:020000040000fa
:04002000c802000012
:020000040000fa
:04002400c80200000e
:020000040000fa
:04002800c80200000a
:020000040000fa
:04002c00c802000006
:020000040000fa
:04003000c802000002
:020000040000fa
:04003400c8020000fe
:020000040000fa
:04003800c8020000fa
:020000040000fa
:04003c00c8020000f6
:020000040000fa
:04004000c8020000f2
:020000040000fa
:04004400c8020000ee
:020000040000fa
:04004800c8020000ea
:020000040000fa
:04004c00c8020000e6
:020000040000fa
:04005000c8020000e2
:020000040000fa
:04005400c8020000de
:020000040000fa
:04005800c8020000da
:020000040000fa
:04005c00c8020000d6
:020000040000fa
:04006000c8020000d2
:020000040000fa
:04006400c8020000ce
:020000040000fa
:04006800c8020000ca
:020000040000fa
:04006c00c8020000c6
:020000040000fa
:04007000c8020000c2
:020000040000fa
:04007400c8020000be
:020000040000fa
:04007800c8020000ba
:020000040000fa
:04007c00c8020000b6
:020000040000fa
:04008000c8020000b2
:020000040000fa
:04008400c8020000ae
:020000040000fa
:04008800c8020000aa
:020000040000fa
:04008c00c8020000a6
:020000040000fa
:04009000c8020000a2
:020000040000fa
:04009400c80200009e
:020000040000fa
:04009800c80200009a
:020000040000fa
:04009c00c802000096
:020000040000fa
:0400a000c802000092
:020000040000fa
:0400a400c80200008e
:020000040000fa
:0400a800c80200008a
:020000040000fa
:0400ac00c802000086
:020000040000fa
:0400b000c802000082
:020000040000fa
:0400b400c80200007e
:020000040000fa
:0400b800c80200007a
:020000040000fa
:0400bc00c802000076
:020000040000fa
:0400c000c802000072
:020000040000fa
:0400c400c80200006e
:020000040000fa
:0400c800c80200006a
:020000040000fa
:0400cc00c802000066
:020000040000fa
:0400d000c802000062
:020000040000fa
:0400d400c80200005e
:020000040000fa
:0400d800c80200005a
:020000040000fa
:0400dc00c802000056
:020000040000fa
:0400e000c802000052
:020000040000fa
:0400e400c80200004e
:020000040000fa
:0400e800c80200004a
:020000040000fa
:0400ec00c802000046
:020000040000fa
:0400f000c802000042
:020000040000fa
:0400f400c80200003e
:020000040000fa
:0400f800c80200003a
:020000040000fa
:0400fc00c802000036
:020000040000fa
:04010000c802000031
:020000040000fa
:04010400c80200002d
:020000040000fa
:04010800c802000029
:020000040000fa
:04010c00c802000025
:020000040000fa
:04011000c802000021
:020000040000fa
:04011400c80200001d
:020000040000fa
:04011800c802000019
:020000040000fa
:04011c00c802000015
:020000040000fa
:04012000c802000011
:020000040000fa
:04012400c80200000d
:020000040000fa
:04012800c802000009
:020000040000fa
:04012c00c802000005
:020000040000fa
:04013000c802000001
:020000040000fa
:04013400c8020000fd
:020000040000fa
:04013800c8020000f9
:020000040000fa
:04013c00c8020000f5
:020000040000fa
:04014000c8020000f1
:020000040000fa
:04014400c8020000ed
:020000040000fa
:04014800c8020000e9
:020000040000fa
:04014c00c8020000e5
:020000040000fa
:04015000c8020000e1
:020000040000fa
:04015400c8020000dd
:020000040000fa
:04015800c8020000d9
:020000040000fa
:04015c00c8020000d5
:020000040000fa
:04016000c8020000d1
:020000040000fa
:04016400c8020000cd
:020000040000fa
:04020800c802000028
:020000040000fa
:04020c00c802000024
:020000040000fa
:04021000c802000020
:020000040000fa
:04021400c80200001c
:020000040000fa
:04021800c802000018
:020000040000fa
:04021c00c802000014
:020000040000fa
:04022000c802000010
:020000040000fa
:04022400c80200000c
:020000040000fa
:04022800c802000008
:020000040000fa
:04022c00c802000004
:020000040000fa
:04023000c802000000
:020000040000fa
:04023400c8020000fc
:020000040000fa
:04023800c8020000f8
:020000040000fa
:04023c00c8020000f4
:020000040000fa
:04024000c8020000f0
:020000040000fa
:04024400c8020000ec
:020000040000fa
:04024800c8020000e8
:020000040000fa
:04024c00c8020000e4
:020000040000fa
:04025000c8020000e0
:020000040000fa
:04025400c8020000dc
:020000040000fa
:04025800c8020000d8
:020000040000fa
:04025c00c8020000d4
:020000040000fa
:04026000c8020000d0
:020000040000fa
:04026400c8020000cc
:020000040000fa
:04026800c8020000c8
:020000040000fa
:04026c00c8020000c4
:020000040000fa
:04027000c8020000c0
:020000040000fa
:04027400c8020000bc
:020000040000fa
:04027800c8020000b8
:020000040000fa
:04027c00c8020000b4
:020000040000fa
:04028000c8020000b0
:020000040000fa
:04028400c8020000ac
:020000040000fa
:04028800c8020000a8
:020000040000fa
:04028c00c8020000a4
:020000040000fa
:04029000c8020000a0
:020000040000fa
:04029400c80200009c
:020000040000fa
:04029800c802000098
:020000040000fa
:04029c00c802000094
:020000040000fa
:0402a000c802000090
:020000040000fa
:0402a400c80200008c
:020000040000fa
:0402a800c802000088
:020000040000fa
:0402ac00c802000084
:020000040000fa
:0402b000c802000080
:020000040000fa
:0402b400c80200007c
:020000040000fa
:0402b800c802000078
:020000040000fa
:0402bc00c802000074
:020000040000fa
:0402c000c802000070
:020000040000fa
:0402c400c80200006c
:020000040000fa
:0402c800c802000068
:020000040000fa
:0402cc00c802000064
:020000040000fa
:0402d000c802000060
:020000040000fa
:0402d400c80200005c
:020000040000fa
:0402d800c802000058
:020000040000fa
:0402dc00c802000054
:020000040000fa
:0402e000c802000050
:020000040000fa
:0402e400c80200004c
:020000040000fa
:0402e800c802000048
:020000040000fa
:0402ec00c802000044
:020000040000fa
:0402f000c802000040
:020000040000fa
:0402f400c80200003c
:020000040000fa
:0402f800c802000038
:020000040000fa
:0402fc00c802000034
:020000040000fa
:04030000c80200002f
:020000040000fa
:04030400c80200002b
:020000040000fa
:04030800c802000027
:020000040000fa
:04030c00c802000023
:020000040000fa
:04031000c80200001f
:020000040000fa
:04031400c80200001b
:020000040000fa
:04031800c802000017
:020000040000fa
:04031c00c802000013
:020000040000fa
:04032000c80200000f
:020000040000fa
:04032400c80200000b
:020000040000fa
:04032800c802000007
:020000040000fa
:04032c00c802000003
:020000040000fa
:04033000c8020000ff
:020000040000fa
:04033400c8020000fb
:020000040000fa
:04033800c8020000f7
:020000040000fa
:04033c00c8020000f3
:020000040000fa
:04034000c8020000ef
:020000040000fa
:04034400c8020000eb
:020000040000fa
:04034800c8020000e7
:020000040000fa
:04034c00c8020000e3
:020000040000fa
:04035000c8020000df
:020000040000fa
:04035400c8020000db
:020000040000fa
:04035800c8020000d7
:020000040000fa
:04035c00c8020000d3
:020000040000fa
:04036000c8020000cf
:020000040000fa
:04036400c8020000cb
:020000040000fa
:100400002f8420000e7f24000e01880000000000d1
:10041000000020000000e000020032000001200087
:1004200020028800140007005b0007000000e000c5
:1004300003003a00002321000100200002003700e1
:100440000000200001002000810f70000100320038
:1004500014000700000020000000e000020032004d
:1004600000000200000000006c0b02000000000011
:100470000040da000000fe004440a9000000200017
:100480000000e0000300320000002000a00188000e
:100490004440a800000006008a1f78008b1f7800e7
:1004a0000000060091018800800478000000eb0045
:1004b0001a003700e284440032a0b4009905ba0063
:1004c000e284440032a0b4009906ba00e2844400f9
:1004d00032a0b4000006eb00476fde00fd07b2005b
:1004e000636ce10003003a00ebff07000000eb0043
:1004f0000a003700606ce10004003a00005deb0088
:100500008b05e900fdff3e00040037006168e10053
:10051000010032000086eb000b00070019c7ba008b
:100520001905ba000e04e00003003a000a00e000da
:10053000e0ff3a0000000600fe07b2009e018800be
:100540008a047800f5ff3700395dba008b05e900b1
:100550000c003200295dba008b05e900080032006a
:100560000c00e00003003a00e284440032a0b40032
:10057000f5ff370019ddba008b05e900faff3a00f4
:100580008904e800e184440032a0b40000000600c1
:100590000040da000000fe000000050003f0a200a9
:1005a000889fbe008a9fbe008c1f7800f80007005d
:1005b000ff0033006450e1004f0032006420e1008e
:1005c0005200320003826c0007003b000905d00096
:1005d0000306d000820f54000c065d0002003900b3
:1005e00002003200890178000306780085825500f8
:1005f00004003d000003fd008103fd008502ea00c8
:100600008b854200840f720002003b0060001000e6
:10061000e08018006011b8000005eb007a28e100c6
:100620000a00390006007800c75ddd00f707b20058
:10063000878075002d003700828171000a017800e3
:10064000610560008180d1000080d3008502e9004f
:10065000f9ff3b00060440008784480002003b008d
:1006600060041400e0841c000988a3000700320025
:100670008a81710082817100610164008904d10066
:100680000884d3008b05e800170037000978a30021
:1006900013003a000b00e000130034008b05e90062
:1006a0000804440089844c000a4474000978a300bb
:1006b0000d003a000b00e000070034008b05e90054
:1006c0000804440089844c0001003a000b0020001b
:1006d0000978a300f7ff32000001eb0002003700a9
:1006e000828171000a0178006e0007000cf0a700fb
:1006f00001f0a000b70037006420e10002003a00da
:10070000838f6c00b70033000801be000200be00fa
:10071000b0003700889fbe008a9fbe008c1f780003
:100720009b000700a200330003866c006450e100c8
:100730002e0032006420e100330032006150e100fd
:100740002f0032006120e100310032008585550024
:10075000eb07b00009002000080420000500370066
:100760000804440089844c000a0031000603430059
:1007700087834b000001530081815b00f8ff330049
:100780000203be000800a0000804440089844c0055
:10079000f6ff3900c639dd00830173000100320025
:1007a000130020008904d1000884d3000998a30015
:1007b000050032000800a7000300a0008904d10052
:1007c0000884d3008b05e8008904d1000884d30095
:1007d0000001eb000281d2003200070001f0a1000d
:1007e0000cf0a70001f0a0007a0037006420e100bf
:1007f0007c0032000801be000200be00f7ff370097
:100800006120e100770032006000b800f3ff37009c
:100810000000200001f82700f0ff3700140020003e
:10082000dc003700f4ff2f00da0037000001be00c3
:10083000420007000470a70003f0a10003f8a30022
:1008400013003a006509b1001000320009003500bc
:100850006928e100020035000100280000000500c1
:1008600000004000818048008502e900fcff3a005a
:1008700000000600f88f4200050035008100d1001d
:100880000080d3008502e800fcff3a00000006006b
:100890008000eb00000005004f89de008201780037
:1008a000d700370081002000618055000b003d001b
:1008b0000b00200061fe2f000100e1001d0034004c
:1008c00082817100610164008904d1000884d30031
:1008d0000000e800faff3a007100200061006400a7
:1008e000030070000200600009003200610444004f
:1008f000e0844c000988a500050032008b05e80063
:100900006808e10002003a008904d1000884d3009d
:10091000f20f20000258e10005003d00c75ddd0038
:10092000f907b20089807500080078000000060011
:100930000bf827008b00780000000500c70ade00d6
:10094000f107b200f50fb20008003200e1cf42001b
:10095000020032000170a00024000500810f700029
:10096000010032000408050044000500810f7000fa
:1009700002003a00140005008502e9000000400072
:1009800081c04800fcff3b000170a000240005006e
:100990000004be00e9ff07000003be000405be001e
:1009a0000200be00e5ff0700844f7500000006004e
:1009b0000200be006450e100050036006420e10042
:1009c000020036000968a30001003a000800be00da
:1009d0000160a0004f0678004f05be004f04be0026
:1009e00000000600f0ff2f00f1ff2700f9ff37009d
:1009f000889fbe008a9fbe008c1f7800e4ff07001e
:100a0000ebff330003866c006450e10024003200e9
:100a10006420e100270032006150e1002200320032
:100a20006120e100210032008b854200eb07b1001c
:100a30000134b800003ab8000804420089844a0032
:100a4000013ab8000030b8008880400009014a002f
:100a5000040033000000400081804800020149008a
:100a60008b05e900c909dd00830170000100320037
:100a700013002000c814de004814dd004709de0022
:100a80001200b200c808de000884700085ff07006d
:100a900001f0a1000cf0a70001f0a000cdff37008d
:100aa0006120e100cfff32000801be000200be005d
:100ab000f7ff37006150e100fcff3a00c9ff370043
:100ac000889fbe008a9fbe008c1f78000004be0075
:100ad0009aff07000478a30026003a006120e10095
:100ae0002500320009f8a30025003a006420e10047
:100af00021003200f507b1000508a3000200320012
:100b000000004000818048006044b80003102000cd
:100b100002002000000040008180480008054400d9
:100b200089854c000a0541008b8549000a05500063
:100b30008b855800030033000a00be0002047400d5
:100b4000838474008301d1000281d300830f71007c
:100b5000f0ff3a008904d1000884d3006001490005
:100b600082017800c1adde00fb07b0004dff070039
:100b700098ff37000960a0000800be0095ff37000d
:100b80001202200002428800f0ff2f00f1ff270030
:100b900090ff3700889fbe008a9fbe00841f7800a8
:100ba0007bff07004f00780011003300f0ff2f009b
:100bb000838f6c0006003b00040565000a00a70057
:100bc0000800370009f0a6001000200008003700d8
:100bd000820f5400838f5c00030039001000200056
:100be00001003e000000200009f0a7000000ea001c
:100bf0004f05be004f04be000000e00000000600ec
:100c0000881f7800030478000300e00007003d001f
:100c100060001000e080180060011900e0811900f8
:100c200002003b0001f02d00030037000400070024
:100c300008f0a70001f0a0004f04780000000600b3
:100c4000889fbe008a9fbe0000827000040271006f
:100c500004827100260032000004be000200be00c3
:100c60006011b8006b092000950220000182cf00be
:100c70000a0039000541b1000082cf0007003900a9
:100c80000541b1000982cf00040039000541b100df
:100c90000882cf00010039000541b1000542520031
:100ca000120032000a003b00828171006101640081
:100cb0008100d1000080d3008984d3000884d30050
:100cc0008b05e8000442e800f7ff3a000700370010
:100cd0000804440089844c000000480081804800da
:100ce0008b05e9000442e900f9ff3a00edfe070038
:0c0cf0004f05be004f04be0000000600cf
:020000040000fa
:100cfc000000fa0081088000f0fc2f0000806000ea
:100d0c000040a00080088800f0342c0060088800a7
:100d1c000621ef0011e1a8000080fa000000060097
:100d2c000400fa00881f7800008fbe0018c0b300c2
:100d3c000200200003f82b001e00be00b4fe0700ca
:100d4c000000e000010034000044eb000804e00067
:100d5c000300320080382100300c88001700370067
:100d6c0018c0b3000200200003f823001e00be00d0
:100d7c00a9fe07000000e00001003d000044eb006c
:100d8c000804e0000300320000712200300c8800df
:100d9c000a00370002002400c35124001e00be00cc
:100dac0010ff070002002600a35e2400f9fd0700d7
:100dbc009bfe070000007800300c88004f04780080
:100dcc000080fa00000006000400fa00881f78007a
:100ddc00008fbe0018c0b3000200200003f82b00e7
:100dec001e00be008afe07000000e0000100340077
:100dfc000044eb000804e000030032000071220004
:100e0c00000c88001800370018c0b3000200200046
:100e1c0003f823001e00be007ffe07000000e00068
:100e2c0001003d000044eb000804e0000300320028
:100e3c0080382100000c88000b0037001e00be001b
:100e4c0001f0a20002002400c3512400e5fe0700bb
:100e5c0002002600a35e2400cefd070070fe0700f2
:100e6c0000007800000c88004f0478000080fa0025
:100e7c00000006000000fa0061368000f00f2e0022
:100e8c008080600000202100010070006036880026
:100e9c009136800000fe2f00008060003001b3000e
:100eac00903688008461a9008a61a900c0d4210011
:100ebc00000c8800c0d42100300c8800c0d4210064
:100ecc00100c8800c0d42100400c8800210c80003c
:100edc0080ff2f00008060006000b300200c8800b1
:100eec00510c800080ff2f00008060006000b30078
:100efc00500c88000080fa00000006000000fa0088
:100f0c00e134800000fe2f00008060003001b3004f
:100f1c00e0348800e1348000f00f2e008080600007
:100f2c000040210001007000e03488000135800091
:100f3c0000fe2f00008060008001b30000358800a7
:100f4c0001358000f00f2e008080600000902100a1
:100f5c000100700000358800010f80000070200037
:100f6c0001007000000f8800810f800000702000cd
:100f7c0001007000800f8800e0e1a8000080fa00fa
:100f8c00000006002800fa00889fbe008a9fbe0061
:100f9c000017980011179800221798003317980023
:100fac00f026210031982300200798003107980083
:100fbc00d0cc2c00c1ec23004007980051079800be
:100fcc002e019000be0190004e009000de009000bb
:100fdc00cdfd070060079800710798006e01900026
:100fec00fe0190002e009000be0090007dfe0700d8
:100ffc006e019000fe0190007afe070002002000b6
:10100c0003002400c0fd0700000f9800110f98008a
:10101c006011b8002e109000be109000fcfd07006f
:10102c000000e00003003a006000b800008fbe0032
:10103c002c01370018c0b3000e0990009e099000d7
:10104c002e109000be109000f3fd07000000e00091
:10105c0001003c000044eb000804e0009500320065
:10106c000e0990009e0990002e109000be1090006a
:10107c0047fd0700200f9800310f98000e099000d3
:10108c009e0990002e089000be08900040fd0700bd
:10109c004e019000de0190009bfd07006e01900058
:1010ac00fe0190003bfd0700400f9800510f980087
:1010bc006e019000fe0190004e089000de0890003a
:1010cc0034fd0700600f9800710f980018c0b30032
:1010dc006e019000fe0190000e1090009e1090008a
:1010ec00cbfd07000000e000010034000044eb00e1
:1010fc000804e0000d0032000e1190009e119000cb
:10110c000e1090009e10900036fe07002e019000ed
:10111c00be01900033fe07000200200003002400f3
:10112c0079fd0700008fbe00ee00370018c0b30039
:10113c006e019000fe0190000e1090009e10900029
:10114c00b5fd07000000e00001003d000044eb008d
:10115c000804e0001800320018c0b3004e099000db
:10116c00de0990000e1090009e109000a8fd070064
:10117c000000e000010034000044eb000804e00033
:10118c000d0032006e019000fe0190000e109000d8
:10119c009e109000fefc07004e019000de019000b6
:1011ac0010fe07000e0990009e099000f9fc070044
:1011bc00008fbe00cb00370018c0b3004e09900062
:1011cc00de0990000e1090009e10900092fd07001a
:1011dc000000e00001003d000044eb000804e000ca
:1011ec003000320018c0b3006e099000fe09900068
:1011fc000e1090009e10900085fd07000000e0008e
:10120c00010034000044eb000804e000250032002b
:10121c004e099000de0990000e1090009e10900078
:10122c00dbfc07004e019000de019000edfd070095
:10123c002e099000be099000d6fc07000004be00e9
:10124c004e099000de0990000e1090009e10900048
:10125c00cffc07002e019000be019000e1fd0700bd
:10126c000005be004e099000de0990000e109000a3
:10127c009e109000c6fc07000001be000a00be00d4
:10128c00d8fd070002002000030024001efd07000b
:10129c000001be000800be00bdfc0700008fbe00b0
:1012ac00900037002e119000be119000028fbe00ee
:1012bc008c00370018c0b3000e0990009e099000f6
:1012cc002e109000be10900051fd07000000e000b1
:1012dc00010035000044eb000804e00081003200fe
:1012ec002e019000be0190002e109000be109000b8
:1012fc0005fd0700effd07006007980071079800d7
:10130c0002002000030024002e109000be1090005c
:10131c00fdfc0700000f9800110f98006e01900063
:10132c00fe0190002e009000be009000adfd070065
:10133c00400798005107980018c0b3006e01900048
:10134c00fe0190000e1090009e10900030fd0700e2
:10135c000000e000010035000044eb000804e00050
:10136c000d0032000e1190009e1190000e10900096
:10137c009e1090009bfd07002e019000be01900076
:10138c0098fd07000200200003002400defc07008b
:10139c00008fbe005300370018c0b3006e019000e0
:1013ac00fe0190000e1090009e1090001afd070098
:1013bc000000e00001003d000044eb000804e000e8
:1013cc00380032006e009000fe0090000001be005c
:1013dc0070fc070018c0b3000e1190009e11900015
:1013ec000dfd07000000e00001003c000044eb0094
:1013fc000804e0002b00320002002000030024004f
:10140c002e109000be109000bffc07000004be0020
:10141c006e019000fe0190000e1090009e10900046
:10142c005bfc07004e019000de0190006dfd070093
:10143c000001be000800be0056fc07000004be0000
:10144c006e019000fe0190000e1090009e10900016
:10145c004ffc07002e019000be01900061fd0700bb
:10146c000005be006e019000fe0190000e10900071
:10147c009e10900046fc07000001be000a00be0052
:10148c0058fd070002002000030024009efc07000a
:10149c000001be000800be003dfc0700008fbe002e
:1014ac00100037006e009000fe0090000001be009e
:1014bc0038fc070018c0b3000e1190009e1190006c
:1014cc00d3fc07000000e000010034000044eb00f6
:1014dc000804e000030032002e119000be119000b1
:1014ec00028fbe001e00be004f05be004f04be00a2
:1014fc000080fa00000006000800fa00200798009f
:10150c003107980030332300b11c2400008fbe003b
:10151c00be0090002e00900000804000cf80de00c6
:10152c00dafc0700b2a42f00e3c823002dfd07004e
:10153c001e01be002bfd07000080fa000000060013
:10154c000c00fa00400798005107980040322f0019
:10155c0011e72300008fbe00de0090004e009000cb
:10156c0000805000cf80de00c8fc07001e01be00ca
:10157c001cfd0700b2a42f00e3c8230019fd0700cf
:10158c0020079800310798002e009000be009000b4
:10159c000080fa00000006001400fa00881f780092
:1015ac006007980071079800020f9800130f9800bd
:1015bc0060872c00d1ac23002007980031079800dd
:1015cc0018c0b3006011b8000e0890009e0890007f
:1015dc008ffc07000000e000010035000044eb0028
:1015ec000804e000050032002e009000be009000c0
:1015fc0001f0a20020079800310798002e019000fe
:10160c00be0190000e0890009e0890003efc070062
:10161c0040079800510798006011b8000e08900020
:10162c009e0890007afc07000000e00003003a00de
:10163c006000b800008fbe002000370018c0b30057
:10164c004e019000de0190006e009000fe009000b4
:10165c006ffc07000000e000010034000044eb00c8
:10166c000804e000070032006e019000fe019000bb
:10167c002e009000be009000dafc0700008fbe0028
:10168c000e00370018c0b3004e019000de01900030
:10169c006e009000fe0090005ffc07000000e00070
:1016ac0001003c000044eb000804e00003003200a1
:1016bc000e0990009e099000028fbe001e00be0015
:1016cc004f0478000080fa00000006001400fa00b5
:1016dc00889fbe003d030700210c800080ff2f0077
:1016ec0000806000200c8800510c800080ff2f00cf
:1016fc0000806000500c88007dfd0700ddfd0700b8
:10170c00fefd070040012000401188002062a90066
:10171c0021e2a8000111800090ff2f0000806000e2
:10172c00001188002002a9002342a8002135800066
:10173c0000fe2f00008060006000b30020358800a0
:10174c0031368000f00f2e008080600000302000c9
:10175c0001007000303688006000b800008fbe00b9
:10176c006000b80030079800410798006000b8008e
:10177c005007980061079800000028007007980037
:10178c007e009000200f88007e009000a00f880043
:10179c0003003700000000000100370000000000cb
:1017ac0010118000610060000000e00002003200b7
:1017bc003011800040479800ce40900010c3b30019
:1017cc0080cf5000f3ff3a00210480000008200075
:1017dc00008060000000e000f0ff320084e0a9000f
:1017ec0002002000031224001e00be0069fb07004b
:1017fc00008fbe00210f80007e0090000080500002
:10180c00000f9800a10f80007e0090000080500017
:10181c00100f980002002000a34724001e00be00f9
:10182c00d8fd07000004be008e0890001e08900032
:10183c0031ff07000001be000800be0054fb07008a
:10184c0002bd2900a3c0230066fc070030079800e6
:10185c00410798006011b8001e00be004eff070043
:10186c000004be008e0890001e08900034ff070094
:10187c000001be000800be0045fb0700020020006e
:10188c0003f0230057fc07005007980061079800ed
:10189c005e019000ee0190003e009000ce009000a2
:1018ac003cfb07001efd07005e019000ee0190005e
:1018bc003e009000ce00900035fb070042fd070073
:1018cc00b7ff37001000fa00889fbe008a9fbe0049
:1018dc008c1f78000006780041079800520798008a
:1018ec0064079800750798006e009000fe00900049
:1018fc004a0cdd00c604de00890474004a04dd00d5
:10190c004e00900068004000100078006101b900a2
:10191c005e009000640040001000be00009ab90008
:10192c0004027800028db9008a0278000502420098
:10193c000010b8000102420084007800000454003a
:10194c0081845c004e0090006a004000100078001a
:10195c006101b9005e0090001000be00009ab90051
:10196c0004027800028db9008a0278000502420058
:10197c000010b800010242008400780000005400fe
:10198c0081805c00008fbe004e009000100078003b
:10199c006101b9001e00be00009ab9000402780073
:1019ac00028cb90088027800050242000010b800d1
:1019bc000102420084007800e00f5000e08f5800d4
:1019cc0002003d00f03fb0000180b0004609dd0090
:1019dc004a03de0006037100ca8bde000604be005b
:1019ec004e00900064004000100078006101b900c6
:1019fc005e0090001000be00009ab900040278004e
:101a0c00028bb90086027800050242000011b80072
:101a1c0003024200840178004e0090000080e80030
:101a2c00100078006102b9005e0090006400400074
:101a3c001000be0000abb90006037800048db9009d
:101a4c008a037800070343000020b8000103430019
:101a5c0086007800020040008380480008004000a7
:101a6c008980480020079800310798003e02be008c
:101a7c002e03be00049ebe000696be000c0078002d
:101a8c004f0678004f05be004f04be000080fa00e0
:101a9c00000006007800fa00889fbe008a9fbe00f6
:101aac008c9fbe001037980000402000100f98004b
:101abc0000802000200f980000402000300f98007c
:101acc0000402000400f9800d0882f00500f980045
:101adc00403f2000600f980000402000700f9800dd
:101aec00008020000017980000402000101798007c
:101afc00004020002017980090882f003017980085
:101b0c00403f2000401798000040200050179800dc
:101b1c0000802f006017980000402000701798007c
:101b2c0000402000001f980090882f00101f980084
:101b3c00b03f2000201f980000402000301f98006c
:101b4c0000802f00401f980000402000501f98007c
:101b5c0000402000601f980000882f00701f980024
:101b6c00b03f2000002798006000b800008fbe0036
:101b7c006000b80020079800310798006000b8009a
:101b8c0040079800510798006000b8006007980063
:101b9c00710798000000eb00000f98001e309000b9
:101bac00cf80de00260420000e034300f201470024
:101bbc000002be000282200083007800060078003c
:101bcc0040ff07000082200020019000b00190002f
:101bdc00008220000288be001e209000ae209000e3
:101bec00e00f5000e08f580002003d00f03fb000c5
:101bfc000180b0004609dd004a04de0008047100d3
:101c0c00ca8cde000801be00008220002200980071
:101c1c00330098003e219000ce2190004318dd0047
:101c2c00cd10de00810070004310dd000001be000d
:101c3c00e00f5100e08f590004003d00f0ff2f0031
:101c4c00f10020000201400083814800449dde0029
:101c5c00cf9dde000a8fbe00a30420008e814100c0
:101c6c007e0047001e02be008282200080007800a9
:101c7c000300780013ff070080822000b000900062
:101c8c0020009000828220000089be005e2090001f
:101c9c00ee209000e00f5000e08f580002003d0055
:101cac00f03fb0000180b0004609dd00ca01de0043
:101cbc008301710023379800ca89de0033379800fe
:101ccc002e309000be3090008282200020019800bf
:101cdc00310198007e2190008e2990004318dd0080
:101cec00cd10de00810070004310dd00e00f5000cd
:101cfc00e08f580004003d00f2ff2f00f30020009d
:101d0c0000004100818049004489de004237980080
:101d1c00cf89de00533798004e319000de319000b1
:101d2c002207980033079800200520000e00400081
:101d3c00a10220008e8040002e029000be02900076
:101d4c0002832000dffe070000832000b00090001b
:101d5c0020009000028320000089be001e28900005
:101d6c00ae289000e00f5000e08f580002003d00bc
:101d7c00f03fb0000180b0004609dd00ca01de0072
:101d8c008301710063379800ca89de0073379800ad
:101d9c006e309000fe3090000283200020019800ed
:101dac00310198003e299000ce2990004318dd00a7
:101dbc00cd10de00810070004310dd00e00f5000fc
:101dcc00e08f580004003d00f2ff2f00f3002000cc
:101ddc0000004100818049004489de00023f9800e8
:101dec00cf89de00133f98000e3990009e39900089
:101dfc004207980053079800a00520000e004000f1
:101e0c00610320008e8040004e029000de029000a4
:101e1c0082832000abfe070080832000b00090007e
:101e2c0020009000828320000089be005e28900074
:101e3c00ee289000e00f5000e08f580002003d00ab
:101e4c00f03fb0000180b0004609dd00ca01de00a1
:101e5c0083017100233f9800ca89de00333f98004c
:101e6c002e389000be38900082832000200198000c
:101e7c00310198007e2990008e3190004318dd00ce
:101e8c00cd10de00810070004310dd00e00f50002b
:101e9c00e08f580004003d00f2ff2f00f3002000fb
:101eac000000410081804900448ede00cf8ede00b0
:101ebc006c0798007d0798006e0090000020b00021
:101ecc00000f98000e0890004f06be004f05be0094
:101edc004f04be000080fa00000006007a00fa00f1
:101eec00889fbe008a9fbe008c9fbe002037980042
:101efc0000402000200f980000802000300f980038
:101f0c0000402000400f980000402000500f980027
:101f1c00d08c2f00600f9800103f2000700f98009d
:101f2c000040200000179800008020001017980037
:101f3c000040200020179800004020003017980027
:101f4c00808c2f0040179800103f200050179800ed
:101f5c00004020006017980000802f007017980038
:101f6c0000402000001f980000402000101f980027
:101f7c00908c2f00201f9800a03f2000301f98004d
:101f8c0000402000401f980000802f00501f980038
:101f9c0000402000601f980000402000701f980037
:101fac00d08b2f0000279800a03f2000102798000e
:101fbc006000b800008fbe006000b80020079800d9
:101fcc00310798006000b80040079800510798004e
:101fdc006000b80060079800710798006000b800b6
:101fec00000f9800110f98002e309000cf80de006b
:101ffc00460420000e034300f40147000002be001b
:10200c000280200083007800060078002dfe070077
:10201c000080200020019000b00190000080200082
:10202c000288be002e209000be209000e00f5000d1
:10203c00e08f580002003d00f03fb0000180b0007e
:10204c004609dd004a04de0008047100ca8cde007b
:10205c000801be0000802000220098003300980088
:10206c004e219000de2190004318dd00cd10de00e3
:10207c00810070004310dd000001be00e00f510034
:10208c00e08f590004003d00f0ff2f00f10020000c
:10209c000201400083814800449dde00cf9dde009c
:1020ac000a8fbe00c30420008e8141000002200074
:1020bc000e0040001e02be008280200080007800ce
:1020cc0003007800fffd070080802000b000900026
:1020dc0020009000828020000089be006e209000bd
:1020ec00fe209000e00f5000e08f580002003d00f1
:1020fc00f03fb0000180b0004609dd00ca01de00ef
:10210c008301710033379800ca89de004337980089
:10211c003e309000ce30900082802000200198004c
:10212c00310198000e2990009e2990004318dd0083
:10213c00cd10de00810070004310dd00e00f500078
:10214c00e08f580004003d00f2ff2f00f300200048
:10215c0000004100818049004489de00523798001c
:10216c00cf89de00633798005e319000ee3190002d
:10217c002207980033079800400520000e0040000d
:10218c00c10220008e8040002e029000be02900002
:10219c0002812000cbfd070000812000b0009000e0
:1021ac0020009000028120000089be002e289000a3
:1021bc00be289000e00f5000e08f580002003d0058
:1021cc00f03fb0000180b0004609dd00ca01de001e
:1021dc008301710073379800ca89de00033f9800b1
:1021ec007e3090008e3890000281200020019800f3
:1021fc00310198004e299000de2990004318dd0033
:10220c00cd10de00810070004310dd00e00f5000a7
:10221c00e08f580004003d00f2ff2f00f300200077
:10222c0000004100818049004489de00123f980083
:10223c00cf89de00233f98001e399000ae39900004
:10224c004207980053079800c00520000e0040007c
:10225c00810320008e8040004e029000de02900030
:10226c008281200097fd070080812000b000900043
:10227c0020009000828120000089be006e28900012
:10228c00fe289000e00f5000e08f580002003d0047
:10229c00f03fb0000180b0004609dd00ca01de004d
:1022ac0083017100333f9800ca89de00433f9800d8
:1022bc003e389000ce38900082812000200198009a
:1022cc00310198000e3190009e3190004318dd00d2
:1022dc00cd10de00810070004310dd00e00f5000d7
:1022ec00e08f580004003d00f2ff2f00f3002000a7
:1022fc000000410081804900448ede00cf8ede005c
:10230c006c0798007d0798006e009000fe0090000e
:10231c000020b0000180b000000f9800110f980051
:10232c000e0890004f06be004f05be004f04be00c5
:10233c000080fa00000006000000fa002143a9000a
:10234c0050c0b30024e3b7002043a8003003a8001a
:10235c002c03a90001198000f0f12f00008060000f
:10236c000060a0000019880021e3a8000080fa009a
:10237c00000006000000fa002023a9000080fa00eb
:10238c00000006000000fa000019800000407800f0
:10239c00614060000080fb000080fa000000060035
:1023ac000000fa0000198000610060000000e000ed
:1023bc00030032002003a900001880000100370040
:1023cc00000028000080fa00000006000000fa005f
:1023dc00e0012000303a8800213a8000f0f32f0011
:1023ec0000806000203a8800213a800000fe2f0017
:1023fc0000806000203a8800320020008007200016
:10240c00a1092000337420008049780081497800ac
:10241c008249780012002000600420007105200021
:10242c002374200080497800814978008249780023
:10243c0000000000113a800000002700808060003e
:10244c0000002300808f5000faff3a000080fa0051
:04245c000000060076
:020000040000fa
:1024600000080000400000000000000040080000dc
:0c2470000200000000000000000000005e
:020000040000fa
:0200000401f009
:04000c008000000070
:020000040000fa
:0200000401f009
:040010006500000087
:020000040000fa
:0200000401f009
:040014005f00000089
:020000040000fa
:0200000401f009
:04001c00dfff000002
:00000001FF
