:020000040000fa
:080000000002040000000000f2
:020000040000fa
:04000800ec02000006
:020000040000fa
:04000c00ec02000002
:020000040000fa
:04001000ec020000fe
:020000040000fa
:04001400ec020000fa
:020000040000fa
:04001800ec020000f6
:020000040000fa
:04001c00ec020000f2
:020000040000fa
:04002000ec020000ee
:020000040000fa
:04002400ec020000ea
:020000040000fa
:04002800ec020000e6
:020000040000fa
:04002c00ec020000e2
:020000040000fa
:04003000ec020000de
:020000040000fa
:04003400ec020000da
:020000040000fa
:04003800ec020000d6
:020000040000fa
:04003c00ec020000d2
:020000040000fa
:04004000ec020000ce
:020000040000fa
:04004400c8020000ee
:020000040000fa
:04004800ec020000c6
:020000040000fa
:04004c00ec020000c2
:020000040000fa
:04005000ec020000be
:020000040000fa
:04005400ec020000ba
:020000040000fa
:04005800ec020000b6
:020000040000fa
:04005c00ec020000b2
:020000040000fa
:04006000ec020000ae
:020000040000fa
:04006400ec020000aa
:020000040000fa
:04006800ec020000a6
:020000040000fa
:04006c00ec020000a2
:020000040000fa
:04007000ec0200009e
:020000040000fa
:04007400ec0200009a
:020000040000fa
:04007800ec02000096
:020000040000fa
:04007c00ec02000092
:020000040000fa
:04008000ec0200008e
:020000040000fa
:04008400ec0200008a
:020000040000fa
:04008800ec02000086
:020000040000fa
:04008c00ec02000082
:020000040000fa
:04009000ec0200007e
:020000040000fa
:04009400ec0200007a
:020000040000fa
:04009800ec02000076
:020000040000fa
:04009c00ec02000072
:020000040000fa
:0400a000ec0200006e
:020000040000fa
:0400a400ec0200006a
:020000040000fa
:0400a800ec02000066
:020000040000fa
:0400ac00ec02000062
:020000040000fa
:0400b000ec0200005e
:020000040000fa
:0400b400ec0200005a
:020000040000fa
:0400b800ec02000056
:020000040000fa
:0400bc00ec02000052
:020000040000fa
:0400c000ec0200004e
:020000040000fa
:0400c400ec0200004a
:020000040000fa
:0400c800ec02000046
:020000040000fa
:0400cc00ec02000042
:020000040000fa
:0400d000ec0200003e
:020000040000fa
:0400d400ec0200003a
:020000040000fa
:0400d800ec02000036
:020000040000fa
:0400dc00ec02000032
:020000040000fa
:0400e000ec0200002e
:020000040000fa
:0400e400ec0200002a
:020000040000fa
:0400e800ec02000026
:020000040000fa
:0400ec00ec02000022
:020000040000fa
:0400f000ec0200001e
:020000040000fa
:0400f400ec0200001a
:020000040000fa
:0400f800ec02000016
:020000040000fa
:0400fc00ec02000012
:020000040000fa
:04010000ec0200000d
:020000040000fa
:04010400ec02000009
:020000040000fa
:04010800ec02000005
:020000040000fa
:04010c00ec02000001
:020000040000fa
:04011000ec020000fd
:020000040000fa
:04011400ec020000f9
:020000040000fa
:04011800ec020000f5
:020000040000fa
:04011c00ec020000f1
:020000040000fa
:04012000ec020000ed
:020000040000fa
:04012400ec020000e9
:020000040000fa
:04012800ec020000e5
:020000040000fa
:04012c00ec020000e1
:020000040000fa
:04013000ec020000dd
:020000040000fa
:04013400ec020000d9
:020000040000fa
:04013800ec020000d5
:020000040000fa
:04013c00ec020000d1
:020000040000fa
:04014000ec020000cd
:020000040000fa
:04014400ec020000c9
:020000040000fa
:04014800ec020000c5
:020000040000fa
:04014c00ec020000c1
:020000040000fa
:04015000ec020000bd
:020000040000fa
:04015400ec020000b9
:020000040000fa
:04015800ec020000b5
:020000040000fa
:04015c00ec020000b1
:020000040000fa
:04016000ec020000ad
:020000040000fa
:04016400ec020000a9
:020000040000fa
:04020800ec02000004
:020000040000fa
:04020c00ec02000000
:020000040000fa
:04021000ec020000fc
:020000040000fa
:04021400ec020000f8
:020000040000fa
:04021800ec020000f4
:020000040000fa
:04021c00ec020000f0
:020000040000fa
:04022000ec020000ec
:020000040000fa
:04022400ec020000e8
:020000040000fa
:04022800ec020000e4
:020000040000fa
:04022c00ec020000e0
:020000040000fa
:04023000ec020000dc
:020000040000fa
:04023400ec020000d8
:020000040000fa
:04023800ec020000d4
:020000040000fa
:04023c00ec020000d0
:020000040000fa
:04024000ec020000cc
:020000040000fa
:04024400ec020000c8
:020000040000fa
:04024800ec020000c4
:020000040000fa
:04024c00ec020000c0
:020000040000fa
:04025000ec020000bc
:020000040000fa
:04025400ec020000b8
:020000040000fa
:04025800ec020000b4
:020000040000fa
:04025c00ec020000b0
:020000040000fa
:04026000ec020000ac
:020000040000fa
:04026400ec020000a8
:020000040000fa
:04026800ec020000a4
:020000040000fa
:04026c00ec020000a0
:020000040000fa
:04027000ec0200009c
:020000040000fa
:04027400ec02000098
:020000040000fa
:04027800ec02000094
:020000040000fa
:04027c00ec02000090
:020000040000fa
:04028000ec0200008c
:020000040000fa
:04028400ec02000088
:020000040000fa
:04028800ec02000084
:020000040000fa
:04028c00ec02000080
:020000040000fa
:04029000ec0200007c
:020000040000fa
:04029400ec02000078
:020000040000fa
:04029800ec02000074
:020000040000fa
:04029c00ec02000070
:020000040000fa
:0402a000ec0200006c
:020000040000fa
:0402a400ec02000068
:020000040000fa
:0402a800ec02000064
:020000040000fa
:0402ac00ec02000060
:020000040000fa
:0402b000ec0200005c
:020000040000fa
:0402b400ec02000058
:020000040000fa
:0402b800ec02000054
:020000040000fa
:0402bc00ec02000050
:020000040000fa
:0402c000ec0200004c
:020000040000fa
:0402c400ec02000048
:020000040000fa
:0402c800ec02000044
:020000040000fa
:0402cc00ec02000040
:020000040000fa
:0402d000ec0200003c
:020000040000fa
:0402d400ec02000038
:020000040000fa
:0402d800ec02000034
:020000040000fa
:0402dc00ec02000030
:020000040000fa
:0402e000ec0200002c
:020000040000fa
:0402e400ec02000028
:020000040000fa
:0402e800ec02000024
:020000040000fa
:0402ec00ec02000020
:020000040000fa
:0402f000ec0200001c
:020000040000fa
:0402f400ec02000018
:020000040000fa
:0402f800ec02000014
:020000040000fa
:0402fc00ec02000010
:020000040000fa
:04030000ec0200000b
:020000040000fa
:04030400ec02000007
:020000040000fa
:04030800ec02000003
:020000040000fa
:04030c00ec020000ff
:020000040000fa
:04031000ec020000fb
:020000040000fa
:04031400ec020000f7
:020000040000fa
:04031800ec020000f3
:020000040000fa
:04031c00ec020000ef
:020000040000fa
:04032000ec020000eb
:020000040000fa
:04032400ec020000e7
:020000040000fa
:04032800ec020000e3
:020000040000fa
:04032c00ec020000df
:020000040000fa
:04033000ec020000db
:020000040000fa
:04033400ec020000d7
:020000040000fa
:04033800ec020000d3
:020000040000fa
:04033c00ec020000cf
:020000040000fa
:04034000ec020000cb
:020000040000fa
:04034400ec020000c7
:020000040000fa
:04034800ec020000c3
:020000040000fa
:04034c00ec020000bf
:020000040000fa
:04035000ec020000bb
:020000040000fa
:04035400ec020000b7
:020000040000fa
:04035800ec020000b3
:020000040000fa
:04035c00ec020000af
:020000040000fa
:04036000ec020000ab
:020000040000fa
:04036400ec020000a7
:020000040000fa
:100400002f8a20000e7f24000e01880000000000cb
:10041000000020000000e000020032000001200087
:1004200020028800140007006d0007000000e000b3
:1004300003003a0080832000010020000200370002
:100440000000200001002000810f70000100320038
:1004500014000700000020000000e000020032004d
:100460000000020000000000280702000000000059
:100470000040da000000fe004440a9000000200017
:100480000000e0000300320000002000a00188000e
:100490004440a800000006008a1f78008b1f7800e7
:1004a0000000060091018800800478000000eb0045
:1004b0001a003700e284440032a0b4009905ba0063
:1004c000e284440032a0b4009906ba00e2844400f9
:1004d00032a0b4000006eb00476fde00fd07b2005b
:1004e000636ce10003003a00ebff07000000eb0043
:1004f0000a003700606ce10004003a00005deb0088
:100500008b05e900fdff3e00040037006168e10053
:10051000010032000086eb000b00070019c7ba008b
:100520001905ba000e04e00003003a000a00e000da
:10053000e0ff3a0000000600fe07b2009e018800be
:100540008a047800f5ff3700395dba008b05e900b1
:100550000c003200295dba008b05e900080032006a
:100560000c00e00003003a00e284440032a0b40032
:10057000f5ff370019ddba008b05e900faff3a00f4
:100580008904e800e184440032a0b40000000600c1
:10059000809fbe003400f80000002000a001880009
:1005a0000000fa0084e0a900111180000020200062
:1005b000008060000000e00003003a0041c8bf0076
:1005c0000000fb00201188000080fa003400f900d0
:1005d0004f00be00004006000040da000000fe00b0
:0405e0000000050012
:020000040000fa
:1005e4001000fa00889fbe008a9fbe008c1f78000e
:1005f40000067800410798005207980064079800a5
:10060400750798006e009000fe009000490cdd0014
:10061400c704de00890474004904dd004e00900024
:1006240068004000100078006101b9005e0090008d
:10063400640040001000be00009ab9000402780073
:10064400028db9008a027800050242000010b80049
:1006540001024200840078000004540081845c009c
:100664004e0090006a004000100078006101b9005b
:100674005e0090001000be00009ab90004027800e9
:10068400028db9008a027800050242000010b80009
:1006940001024200840078000000540081805c0064
:1006a400008fbe004e009000100078006101b90078
:1006b4001e00be00009ab90004027800028cb90042
:1006c40088027800050242000010b80001024200ce
:1006d40084007800e00f5000e08f580002003d00d5
:1006e400f01fb0000180b0004709dd004903de00bf
:1006f40006037100c98bde000604be004e009000a4
:1007040064004000100078006101b9005e009000b0
:100714001000be00009ab90004027800028bb900f0
:1007240086027800050242000011b800030242006c
:10073400840178004e0090000080e80010007800ea
:100744006102b9005e009000640040001000be0029
:1007540000abb90006037800048db9008a03780061
:10076400070343000020b80001034300860078001b
:10077400020040008380480008004000898048004f
:1007840020079800310798003e02be002e03be00e9
:10079400049ebe000696be000c0078004f0678004a
:1007a4004f05be004f04be000080fa0000000600a2
:1007b4004800fa00889fbe008a9fbe008c9fbe003e
:1007c400101f98006000b800008fbe006000b800e1
:1007d40020079800310798006000b800400798008f
:1007e400510798006000b8006007980071079800ee
:1007f4000000eb00000f98001e189000cf80de0070
:10080400f20147000002be00028220002184200081
:100814000300780072ff070000822000200190008e
:10082400b0019000008220000288be001e089000e3
:10083400ae089000e00f5000e08f580002003d0029
:10084400f01fb0000180b0004709dd004904de005c
:1008540008047100c98cde000801be00008220007b
:1008640022009800330098003e089000ce089000c3
:100874000001be00e00f5100e08f590004003d006c
:10088400f0ff2f0031002000020140008381480066
:10089400429dde00cf9dde000a8fbe007a00470035
:1008a4001e02be0082822000e18420004cff07006b
:1008b40080822000b00090002000900082822000fe
:1008c4000089be005e089000ee089000e00f500022
:1008d400e08f580002003d00f01fb0000180b0001e
:1008e4004709dd00c901de0083017100231f980060
:1008f400c989de00331f98002e189000be1890009e
:100904008282200020019800310198007e08900026
:100914008e109000e00f5000e08f580004003d005e
:10092400f2ff2f00330020000000410081804900c5
:100934004289de00421f9800cf89de00531f9800d1
:100944004e199000de199000220798003307980092
:10095400200220000e0040002e029000be029000f3
:1009640002832000a18520001dff070000832000d2
:10097400b000900020009000028320000089be0097
:100984001e109000ae109000e00f5000e08f580051
:1009940002003d00f01fb0000180b0004709dd00f7
:1009a400c901de0083017100631f9800c989de005c
:1009b400731f98006e189000fe18900002832000a8
:1009c40020019800310198003e109000ce10900054
:1009d400e00f5000e08f580004003d00f2ff2f00ac
:1009e4003300200000004100818049004289de007c
:1009f40002279800cf89de00132798000e2190006b
:100a04009e2190004207980053079800a0022000fe
:100a14000e0040004e029000de029000828320000f
:100a240061862000eefe070080832000b000900065
:100a340020009000828320000089be005e10900098
:100a4400ee109000e00f5000e08f580002003d00cf
:100a5400f01fb0000180b0004709dd00c901de00cd
:100a64008301710023279800c989de003327980089
:100a74002e209000be209000828320002001980048
:100a8400310198007e1190008e1990004318dd000a
:100a9400cd10de00810070004310dd00e00f500037
:100aa400e08f580004003d00f2ff2f0033002000c7
:100ab4000000410081804900428ede00cf8ede00be
:100ac4006c0798007d0798006e0090000020b0002d
:100ad400000f98000e0890004f06be004f05be00a0
:100ae4004f04be000080fa00000006004a00fa002d
:100af400889fbe008a9fbe008c9fbe00201f980066
:100b04006000b800008fbe006000b80020079800a5
:100b1400310798006000b80040079800510798001a
:100b24006000b80060079800710798006000b80082
:100b3400000f9800110f98002e189000cf80de004f
:100b4400f40147000002be0002802000218720003b
:100b540003007800a2fe070000802000200190001e
:100b6400b0019000008020000288be002e08900092
:100b7400be089000e00f5000e08f580002003d00d6
:100b8400f01fb0000180b0004709dd004904de0019
:100b940008047100c98cde000801be00008020003a
:100ba40022009800330098004e089000de08900060
:100bb4000001be00e00f5100e08f590004003d0029
:100bc400f0ff2f0031002000020140008381480023
:100bd400429dde00cf9dde000a8fbe007c004700f0
:100be4001e02be0082802000e18720007cfe0700f8
:100bf40080802000b00090002000900082802000bf
:100c04000089be006e089000fe089000e00f5000be
:100c1400e08f580002003d00f01fb0000180b000da
:100c24004709dd00c901de0083017100331f98000c
:100c3400c989de00431f98003e189000ce1890002a
:100c44008280200020019800310198000e1090004d
:100c54009e109000e00f5000e08f580004003d000b
:100c6400f2ff2f0033002000000041008180490082
:100c74004289de00521f9800cf89de00631f98006e
:100c84005e199000ee19900022079800330798002f
:100c9400400220000e0040002e029000be02900090
:100ca40002812000a18820004dfe07000081200061
:100cb400b000900020009000028120000089be0056
:100cc4002e109000be109000e00f5000e08f5800ee
:100cd40002003d00f01fb0000180b0004709dd00b4
:100ce400c901de0083017100731f9800c989de0009
:100cf400032798007e1890008e2090000281200027
:100d040020019800310198004e109000de109000f0
:100d1400e00f5000e08f580004003d00f2ff2f0068
:100d24003300200000004100818049004289de0038
:100d340012279800cf89de00232798001e219000f7
:100d4400ae2190004207980053079800c00220008b
:100d54000e0040004e029000de02900082812000ce
:100d6400618920001efe070080812000b0009000f1
:100d740020009000828120000089be006e10900047
:100d8400fe109000e00f5000e08f580002003d007c
:100d9400f01fb0000180b0004709dd00c901de008a
:100da4008301710033279800c989de004327980026
:100db4003e209000ce2090008281200020019800e7
:100dc400310198000e1890009e1890007309b90024
:100dd400020178006002b900840178000301410037
:100de400330120000300b8000101410082007800b3
:100df400e00f5000e08f580004003d00f2ff2f0088
:100e0400330020000000410081804900428ede0052
:100e1400cf8ede006c0798007d0798006e0090006e
:100e2400fe0090000020b0000180b000000f980088
:100e3400110f98000e0890004f06be004f05be002b
:100e44004f04be000080fa00000006001200fa0001
:100e540040c1b30030479800203f2000200798008d
:100e6400a0002000300798000040200040079800b0
:100e74000000eb00500798000040eb00004f7800a2
:100e84000040eb00104798000040eb00204798001a
:100e9400c6000700a0000700803821006008880011
:100ea40011e1a800a00f20007008880013e1a80039
:100eb400c802a800c8c2a90040012000401188004f
:100ec4002062a90021e2a8000111800090ff2f00f8
:100ed40000806000001188002002a9002342a800bd
:100ee4002135800000fe2f00008060006000b30008
:100ef4002035880031368000f00f2e00808060009d
:100f040000302000010070003036880081e0a80025
:100f14008500a90084e0a90094e0a800010037003e
:100f24000000000021048000001020000080600008
:100f34000000e0002f0032008500a90085000700b2
:100f440000000000870007000000e000fdff320001
:100f54008b000700600798006e00900014fe0700e5
:100f6400700798006e009000e0fe0700000f9800e4
:100f7400fe0090005e009000808f500004003c0052
:100f84001e4090000040e800104798000f00370012
:100f9400fe0090004e009000808f50000400350049
:100fa4001e4090000040e8001047980007003700fa
:100fb4008e0890003e009000808f500003003c009b
:100fc4001e4078000040e800004f78008e08900032
:100fd4002e009000808f5000030035001e407800e2
:100fe4000040e800004f78002e4090000040e800e8
:100ff400204798002e4090008000fb003e40900067
:101004000000fb000000e900808f5000c4ff3a009c
:101014000040eb00204798001e409000e14f500034
:101024000300340010c3b30040e8b70002003700e7
:1010340000c3b30040e8b7001e407800e14f500001
:101044000300340010c3b30041e8b70002003700c6
:1010540000c3b30041e8b7000040eb00104798001c
:0c1064000040eb00004f7800aeff3700aa
:020000040000fa
:1010700040080000020000000200000030300000c4
:1010800042080000600000000200000000020000b2
:101090000400020000024600fcfa01000002000009
:1010a0000400020000024400fcfa010000020000fb
:1010b000fc00020000024400fcfd010000020000f0
:1010c000fc00020000024000fcfd010000020000e4
:1010d0000400020000026600fcf9010000020000aa
:1010e0000400020000026300fcf90100000200009d
:1010f000fc00020000026400fcfd01000002000090
:10110000fc00020000025e00fcfd0100000800007f
:0c11100040000000000000000000000093
:020000040000fa
:10111c000000fa002143a90050c0b30024e3b7003b
:10112c002043a8003003a8002c03a900011980005b
:10113c00f0f12f00008060000060a0000019880012
:10114c0021e3a8000080fa00000006000000fa006d
:10115c002023a9000080fa00000006000000fa001d
:10116c000019800000407800614060000080fb00a6
:10117c000080fa00000006000000fa000019800050
:10118c00610060000000e000030032002003a900b1
:10119c000018800001003700000028000080fa00d1
:1011ac00000006000000fa00e0012000303a880040
:1011bc00213a8000f0f32f0000806000203a880074
:1011cc00213a800000fe2f0000806000203a880049
:1011dc003200200080072000a10920003374200079
:1011ec0080497800814978008249780012002000fb
:1011fc0060042000710520002374200080497800d1
:10120c00814978008249780000000000113a800082
:10121c00000027008080600000002300808f5000b9
:0c122c00faff3a000080fa000000060003
:020000040000fa
:0200000401f009
:04000c008000000070
:020000040000fa
:0200000401f009
:040010006500000087
:020000040000fa
:0200000401f009
:040014005f00000089
:020000040000fa
:0200000401f009
:04001c00dfff000002
:00000001FF
