:020000040000fa
:080000000002040000000000f2
:020000040000fa
:04000800c80200002a
:020000040000fa
:04000c00c802000026
:020000040000fa
:04001000c802000022
:020000040000fa
:04001400c80200001e
:020000040000fa
:04001800c80200001a
:020000040000fa
:04001c00c802000016
:020000040000fa
:04002000c802000012
:020000040000fa
:04002400c80200000e
:020000040000fa
:04002800c80200000a
:020000040000fa
:04002c00c802000006
:020000040000fa
:04003000c802000002
:020000040000fa
:04003400c8020000fe
:020000040000fa
:04003800c8020000fa
:020000040000fa
:04003c00c8020000f6
:020000040000fa
:04004000c8020000f2
:020000040000fa
:04004400c8020000ee
:020000040000fa
:04004800c8020000ea
:020000040000fa
:04004c00c8020000e6
:020000040000fa
:04005000c8020000e2
:020000040000fa
:04005400c8020000de
:020000040000fa
:04005800c8020000da
:020000040000fa
:04005c00c8020000d6
:020000040000fa
:04006000c8020000d2
:020000040000fa
:04006400c8020000ce
:020000040000fa
:04006800c8020000ca
:020000040000fa
:04006c00c8020000c6
:020000040000fa
:04007000c8020000c2
:020000040000fa
:04007400c8020000be
:020000040000fa
:04007800c8020000ba
:020000040000fa
:04007c00c8020000b6
:020000040000fa
:04008000c8020000b2
:020000040000fa
:04008400c8020000ae
:020000040000fa
:04008800c8020000aa
:020000040000fa
:04008c00c8020000a6
:020000040000fa
:04009000c8020000a2
:020000040000fa
:04009400c80200009e
:020000040000fa
:04009800c80200009a
:020000040000fa
:04009c00c802000096
:020000040000fa
:0400a000c802000092
:020000040000fa
:0400a400c80200008e
:020000040000fa
:0400a800c80200008a
:020000040000fa
:0400ac00c802000086
:020000040000fa
:0400b000c802000082
:020000040000fa
:0400b400c80200007e
:020000040000fa
:0400b800c80200007a
:020000040000fa
:0400bc00c802000076
:020000040000fa
:0400c000c802000072
:020000040000fa
:0400c400c80200006e
:020000040000fa
:0400c800c80200006a
:020000040000fa
:0400cc00c802000066
:020000040000fa
:0400d000c802000062
:020000040000fa
:0400d400c80200005e
:020000040000fa
:0400d800c80200005a
:020000040000fa
:0400dc00c802000056
:020000040000fa
:0400e000c802000052
:020000040000fa
:0400e400c80200004e
:020000040000fa
:0400e800c80200004a
:020000040000fa
:0400ec00c802000046
:020000040000fa
:0400f000c802000042
:020000040000fa
:0400f400c80200003e
:020000040000fa
:0400f800c80200003a
:020000040000fa
:0400fc00c802000036
:020000040000fa
:04010000c802000031
:020000040000fa
:04010400c80200002d
:020000040000fa
:04010800c802000029
:020000040000fa
:04010c00c802000025
:020000040000fa
:04011000c802000021
:020000040000fa
:04011400c80200001d
:020000040000fa
:04011800c802000019
:020000040000fa
:04011c00c802000015
:020000040000fa
:04012000c802000011
:020000040000fa
:04012400c80200000d
:020000040000fa
:04012800c802000009
:020000040000fa
:04012c00c802000005
:020000040000fa
:04013000c802000001
:020000040000fa
:04013400c8020000fd
:020000040000fa
:04013800c8020000f9
:020000040000fa
:04013c00c8020000f5
:020000040000fa
:04014000c8020000f1
:020000040000fa
:04014400c8020000ed
:020000040000fa
:04014800c8020000e9
:020000040000fa
:04014c00c8020000e5
:020000040000fa
:04015000c8020000e1
:020000040000fa
:04015400c8020000dd
:020000040000fa
:04015800c8020000d9
:020000040000fa
:04015c00c8020000d5
:020000040000fa
:04016000c8020000d1
:020000040000fa
:04016400c8020000cd
:020000040000fa
:04020800c802000028
:020000040000fa
:04020c00c802000024
:020000040000fa
:04021000c802000020
:020000040000fa
:04021400c80200001c
:020000040000fa
:04021800c802000018
:020000040000fa
:04021c00c802000014
:020000040000fa
:04022000c802000010
:020000040000fa
:04022400c80200000c
:020000040000fa
:04022800c802000008
:020000040000fa
:04022c00c802000004
:020000040000fa
:04023000c802000000
:020000040000fa
:04023400c8020000fc
:020000040000fa
:04023800c8020000f8
:020000040000fa
:04023c00c8020000f4
:020000040000fa
:04024000c8020000f0
:020000040000fa
:04024400c8020000ec
:020000040000fa
:04024800c8020000e8
:020000040000fa
:04024c00c8020000e4
:020000040000fa
:04025000c8020000e0
:020000040000fa
:04025400c8020000dc
:020000040000fa
:04025800c8020000d8
:020000040000fa
:04025c00c8020000d4
:020000040000fa
:04026000c8020000d0
:020000040000fa
:04026400c8020000cc
:020000040000fa
:04026800c8020000c8
:020000040000fa
:04026c00c8020000c4
:020000040000fa
:04027000c8020000c0
:020000040000fa
:04027400c8020000bc
:020000040000fa
:04027800c8020000b8
:020000040000fa
:04027c00c8020000b4
:020000040000fa
:04028000c8020000b0
:020000040000fa
:04028400c8020000ac
:020000040000fa
:04028800c8020000a8
:020000040000fa
:04028c00c8020000a4
:020000040000fa
:04029000c8020000a0
:020000040000fa
:04029400c80200009c
:020000040000fa
:04029800c802000098
:020000040000fa
:04029c00c802000094
:020000040000fa
:0402a000c802000090
:020000040000fa
:0402a400c80200008c
:020000040000fa
:0402a800c802000088
:020000040000fa
:0402ac00c802000084
:020000040000fa
:0402b000c802000080
:020000040000fa
:0402b400c80200007c
:020000040000fa
:0402b800c802000078
:020000040000fa
:0402bc00c802000074
:020000040000fa
:0402c000c802000070
:020000040000fa
:0402c400c80200006c
:020000040000fa
:0402c800c802000068
:020000040000fa
:0402cc00c802000064
:020000040000fa
:0402d000c802000060
:020000040000fa
:0402d400c80200005c
:020000040000fa
:0402d800c802000058
:020000040000fa
:0402dc00c802000054
:020000040000fa
:0402e000c802000050
:020000040000fa
:0402e400c80200004c
:020000040000fa
:0402e800c802000048
:020000040000fa
:0402ec00c802000044
:020000040000fa
:0402f000c802000040
:020000040000fa
:0402f400c80200003c
:020000040000fa
:0402f800c802000038
:020000040000fa
:0402fc00c802000034
:020000040000fa
:04030000c80200002f
:020000040000fa
:04030400c80200002b
:020000040000fa
:04030800c802000027
:020000040000fa
:04030c00c802000023
:020000040000fa
:04031000c80200001f
:020000040000fa
:04031400c80200001b
:020000040000fa
:04031800c802000017
:020000040000fa
:04031c00c802000013
:020000040000fa
:04032000c80200000f
:020000040000fa
:04032400c80200000b
:020000040000fa
:04032800c802000007
:020000040000fa
:04032c00c802000003
:020000040000fa
:04033000c8020000ff
:020000040000fa
:04033400c8020000fb
:020000040000fa
:04033800c8020000f7
:020000040000fa
:04033c00c8020000f3
:020000040000fa
:04034000c8020000ef
:020000040000fa
:04034400c8020000eb
:020000040000fa
:04034800c8020000e7
:020000040000fa
:04034c00c8020000e3
:020000040000fa
:04035000c8020000df
:020000040000fa
:04035400c8020000db
:020000040000fa
:04035800c8020000d7
:020000040000fa
:04035c00c8020000d3
:020000040000fa
:04036000c8020000cf
:020000040000fa
:04036400c8020000cb
:020000040000fa
:100400000f8420000e7f24000e01880000000000f1
:10041000000020000000e000020032000001200087
:1004200020028800140007005b0007000000e000c5
:1004300003003a00408a200001002000020037003b
:100440000000200001002000810f70000100320038
:1004500014000700000020000000e000020032004d
:1004600000000200000000009608020000000000ea
:100470000040da000000fe004440a9000000200017
:100480000000e0000300320000002000a00188000e
:100490004440a800000006008a1f78008b1f7800e7
:1004a0000000060091018800800478000000eb0045
:1004b0001a003700e284440032a0b4009905ba0063
:1004c000e284440032a0b4009906ba00e2844400f9
:1004d00032a0b4000006eb00476fde00fd07b2005b
:1004e000636ce10003003a00ebff07000000eb0043
:1004f0000a003700606ce10004003a00005deb0088
:100500008b05e900fdff3e00040037006168e10053
:10051000010032000086eb000b00070019c7ba008b
:100520001905ba000e04e00003003a000a00e000da
:10053000e0ff3a0000000600fe07b2009e018800be
:100540008a047800f5ff3700395dba008b05e900b1
:100550000c003200295dba008b05e900080032006a
:100560000c00e00003003a00e284440032a0b40032
:10057000f5ff370019ddba008b05e900faff3a00f4
:100580008904e800e184440032a0b40000000600c1
:0c0590000040da000000fe000000050042
:020000040000fa
:10059c001000fa00889fbe008a9fbe008c1f780056
:1005ac0000067800410798005207980064079800ed
:1005bc00750798006e009000fe0090004a0cdd005c
:1005cc00c604de00890474004a04dd004e0090006d
:1005dc0068004000100078006101b9005e009000d6
:1005ec00640040001000be00009ab90004027800bc
:1005fc00028db9008a027800050242000010b80092
:10060c0001024200840078000004540081845c00e4
:10061c004e0090006a004000100078006101b900a3
:10062c005e0090001000be00009ab9000402780031
:10063c00028db9008a027800050242000010b80051
:10064c0001024200840078000000540081805c00ac
:10065c00008fbe004e009000100078006101b900c0
:10066c001e00be00009ab90004027800028cb9008a
:10067c0088027800050242000010b8000102420016
:10068c0084007800e00f5000e08f580002003d001d
:10069c00f03fb0000180b0004609dd004a03de00e7
:1006ac0006037100ca8bde000604be004e009000eb
:1006bc0064004000100078006101b9005e009000f9
:1006cc001000be00009ab90004027800028bb90039
:1006dc0086027800050242000011b80003024200b5
:1006ec00840178004e0090000080e8001000780033
:1006fc006102b9005e009000640040001000be0072
:10070c0000abb90006037800048db9008a037800a9
:10071c00070343000020b800010343008600780063
:10072c000200400083804800080040008980480097
:10073c0020079800310798003e02be002e03be0031
:10074c00049ebe000696be000c0078004f06780092
:10075c004f05be004f04be000080fa0000000600ea
:10076c007800fa00889fbe008a9fbe008c9fbe0056
:10077c001037980000402000100f980000802000d7
:10078c00200f980000402000300f980000402000ff
:10079c00400f9800d0882f00500f9800403f200049
:1007ac00600f980000402000700f9800008020001f
:1007bc0000179800004020001017980000402000ff
:1007cc002017980090882f0030179800403f200089
:1007dc0040179800004020005017980000802f0010
:1007ec00601798000040200070179800004020000f
:1007fc00001f980090882f00101f9800b03f200019
:10080c00201f980000402000301f980000802f000f
:10081c00401f980000402000501f9800004020000e
:10082c00601f980000882f00701f9800b03f2000b8
:10083c00002798006000b800008fbe006000b80070
:10084c0020079800310798006000b8004007980016
:10085c00510798006000b800600798007107980075
:10086c000000eb00000f98001e309000cf80de00df
:10087c00260420000e034300f20147000002be00d4
:10088c0002822000830078000600780040ff0700f9
:10089c000082200020019000b00190000082200016
:1008ac000288be001e209000ae209000e00f500089
:1008bc00e08f580002003d00f03fb0000180b00016
:1008cc004609dd004a04de0008047100ca8cde0013
:1008dc000801be000082200022009800330098001e
:1008ec003e219000ce2190004318dd00cd10de009b
:1008fc00810070004310dd000001be00e00f5100cc
:10090c00e08f590004003d00f0ff2f00f1002000a3
:10091c000201400083814800449dde00cf9dde0033
:10092c000a8fbe00a30420008e8141007e00470088
:10093c001e02be0082822000800078000300780036
:10094c0013ff070080822000b00090002000900070
:10095c00828220000089be005e209000ee20900074
:10096c00e00f5000e08f580002003d00f03fb00057
:10097c000180b0004609dd00ca01de008301710070
:10098c0023379800ca89de00333798002e30900048
:10099c00be30900082822000200198003101980026
:1009ac007e2190008e2990004318dd00cd10de00d2
:1009bc00810070004310dd00e00f5000e08f580004
:1009cc0004003d00f2ff2f00f30020000000410066
:1009dc00818049004489de0042379800cf89de00cf
:1009ec00533798004e319000de319000220798006a
:1009fc0033079800200520000e004000a1022000c3
:100a0c008e8040002e029000be02900002832000d7
:100a1c00dffe070000832000b00090002000900053
:100a2c00028320000089be001e289000ae28900092
:100a3c00e00f5000e08f580002003d00f03fb00086
:100a4c000180b0004609dd00ca01de00830171009f
:100a5c0063379800ca89de00733798006e309000b7
:100a6c00fe30900002832000200198003101980094
:100a7c003e299000ce2990004318dd00cd10de00f9
:100a8c00810070004310dd00e00f5000e08f580033
:100a9c0004003d00f2ff2f00f30020000000410095
:100aac00818049004489de00023f9800cf89de0036
:100abc00133f98000e3990009e3990004207980021
:100acc0053079800a00520000e0040006103200091
:100adc008e8040004e029000de0290008283200047
:100aec00abfe070080832000b00090002000900037
:100afc00828320000089be005e289000ee289000c2
:100b0c00e00f5000e08f580002003d00f03fb000b5
:100b1c000180b0004609dd00ca01de0083017100ce
:100b2c00233f9800ca89de00333f98002e3890008e
:100b3c00be3890008283200020019800310198007b
:100b4c007e2990008e3190004318dd00cd10de0020
:100b5c00810070004310dd00e00f5000e08f580062
:100b6c0004003d00f2ff2f00f300200000004100c4
:100b7c0081804900448ede00cf8ede006c07980029
:100b8c007d0798006e0090000020b000000f9800c8
:100b9c000e0890004f06be004f05be004f04be006d
:100bac000080fa00000006007a00fa00889fbe0060
:100bbc008a9fbe008c9fbe0020379800004020000a
:100bcc00200f980000802000300f9800004020007b
:100bdc00400f980000402000500f9800d08c2f0040
:100bec00600f9800103f2000700f9800004020000c
:100bfc00001798000080200010179800004020007b
:100c0c00201798000040200030179800808c2f008f
:100c1c0040179800103f200050179800004020000b
:100c2c006017980000802f0070179800004020007b
:100c3c00001f980000402000101f9800908c2f007f
:100c4c00201f9800a03f2000301f9800004020007b
:100c5c00401f980000802f00501f9800004020007b
:100c6c00601f980000402000701f9800d08b2f0050
:100c7c0000279800a03f2000102798006000b800c3
:100c8c00008fbe006000b800200798003107980064
:100c9c006000b80040079800510798006000b80049
:100cac0060079800710798006000b800000f98006a
:100cbc00110f98002e309000cf80de0046042000eb
:100ccc000e034300f40147000002be000280200026
:100cdc0083007800060078002dfe070000802000bd
:100cec0020019000b0019000008020000288be001e
:100cfc002e209000be209000e00f5000e08f580096
:100d0c0002003d00f03fb0000180b0004609dd005c
:100d1c004a04de0008047100ca8cde000801be0023
:100d2c000080200022009800330098004e21900093
:100d3c00de2190004318dd00cd10de008100700034
:100d4c004310dd000001be00e00f5100e08f5900a0
:100d5c0004003d00f0ff2f00f100200002014000d4
:100d6c0083814800449dde00cf9dde000a8fbe00cb
:100d7c00c30420008e814100000220000e004000c0
:100d8c001e02be00828020008000780003007800e4
:100d9c00fffd070080802000b00090002000900034
:100dac00828020000089be006e209000fe20900002
:100dbc00e00f5000e08f580002003d00f03fb00003
:100dcc000180b0004609dd00ca01de00830171001c
:100ddc0033379800ca89de00433798003e309000c4
:100dec00ce309000828020002001980031019800c4
:100dfc000e2990009e2990004318dd00cd10de00d6
:100e0c00810070004310dd00e00f5000e08f5800af
:100e1c0004003d00f2ff2f00f30020000000410011
:100e2c00818049004489de0052379800cf89de006a
:100e3c00633798005e319000ee31900022079800e5
:100e4c0033079800400520000e004000c10220002e
:100e5c008e8040002e029000be0290000281200085
:100e6c00cbfd070000812000b00090002000900016
:100e7c00028120000089be002e289000be28900020
:100e8c00e00f5000e08f580002003d00f03fb00032
:100e9c000180b0004609dd00ca01de00830171004b
:100eac0073379800ca89de00033f98007e309000ab
:100ebc008e389000028120002001980031019800aa
:100ecc004e299000de2990004318dd00cd10de0085
:100edc00810070004310dd00e00f5000e08f5800df
:100eec0004003d00f2ff2f00f30020000000410041
:100efc00818049004489de00123f9800cf89de00d2
:100f0c00233f98001e399000ae399000420798009c
:100f1c0053079800c00520000e00400081032000fc
:100f2c008e8040004e029000de02900082812000f4
:100f3c0097fd070080812000b000900020009000f9
:100f4c00828120000089be006e289000fe2890004f
:100f5c00e00f5000e08f580002003d00f03fb00061
:100f6c000180b0004609dd00ca01de00830171007a
:100f7c00333f9800ca89de00433f98003e3890000a
:100f8c00ce38900082812000200198003101980019
:100f9c000e3190009e3190004318dd00cd10de0024
:100fac00810070004310dd00e00f5000e08f58000e
:100fbc0004003d00f2ff2f00f30020000000410070
:100fcc0081804900448ede00cf8ede006c079800d5
:100fdc007d0798006e009000fe0090000020b0008d
:100fec000180b000000f9800110f98000e089000bf
:100ffc004f06be004f05be004f04be000080fa0035
:10100c00000006000000fa002143a90050c0b30004
:10101c0024e3b7002043a8003003a8002c03a90048
:10102c0001198000f0f12f00008060000060a0002a
:10103c000019880021e3a8000080fa0000000600d7
:10104c000000fa002023a9000080fa00000006002e
:10105c000000fa0000198000004078006140600038
:10106c000080fb000080fa00000006000000fa007f
:10107c0000198000610060000000e00003003200f5
:10108c002003a90000188000010037000000280090
:10109c000080fa00000006000000fa00e0012000c9
:1010ac00303a8800213a8000f0f32f000080600075
:1010bc00203a8800213a800000fe2f00008060005a
:1010cc00203a88003200200080072000a10920006f
:1010dc003374200080497800814978008249780077
:1010ec0012002000600420007105200023742000f1
:1010fc00804978008149780082497800000000001e
:10110c00113a80000000270080806000000023005e
:10111c00808f5000faff3a000080fa0000000600b1
:10112c000000fa00dcff0700b6ff0700a00f20004c
:0c113c006008880011e1a800ffff3700e8
:020000040000fa
:10114800000800004000000000000000000000004f
:020000040000fa
:0200000401f009
:04000c008000000070
:020000040000fa
:0200000401f009
:040010006500000087
:020000040000fa
:0200000401f009
:040014005f00000089
:020000040000fa
:0200000401f009
:04001c00dfff000002
:00000001FF
