:020000040000fa
:080000000002040000000000f2
:020000040000fa
:04000800fc020000f6
:020000040000fa
:04000c00fc020000f2
:020000040000fa
:04001000fc020000ee
:020000040000fa
:04001400fc020000ea
:020000040000fa
:04001800fc020000e6
:020000040000fa
:04001c00fc020000e2
:020000040000fa
:04002000fc020000de
:020000040000fa
:04002400fc020000da
:020000040000fa
:04002800fc020000d6
:020000040000fa
:04002c00fc020000d2
:020000040000fa
:04003000fc020000ce
:020000040000fa
:04003400fc020000ca
:020000040000fa
:04003800fc020000c6
:020000040000fa
:04003c00fc020000c2
:020000040000fa
:04004000fc020000be
:020000040000fa
:04004400fc020000ba
:020000040000fa
:04004800fc020000b6
:020000040000fa
:04004c00fc020000b2
:020000040000fa
:04005000fc020000ae
:020000040000fa
:04005400fc020000aa
:020000040000fa
:04005800fc020000a6
:020000040000fa
:04005c00c8020000d6
:020000040000fa
:04006000fc0200009e
:020000040000fa
:04006400fc0200009a
:020000040000fa
:04006800fc02000096
:020000040000fa
:04006c00fc02000092
:020000040000fa
:04007000fc0200008e
:020000040000fa
:04007400fc0200008a
:020000040000fa
:04007800fc02000086
:020000040000fa
:04007c00fc02000082
:020000040000fa
:04008000fc0200007e
:020000040000fa
:04008400fc0200007a
:020000040000fa
:04008800fc02000076
:020000040000fa
:04008c00fc02000072
:020000040000fa
:04009000fc0200006e
:020000040000fa
:04009400fc0200006a
:020000040000fa
:04009800fc02000066
:020000040000fa
:04009c00fc02000062
:020000040000fa
:0400a000fc0200005e
:020000040000fa
:0400a400fc0200005a
:020000040000fa
:0400a800fc02000056
:020000040000fa
:0400ac00fc02000052
:020000040000fa
:0400b000fc0200004e
:020000040000fa
:0400b400fc0200004a
:020000040000fa
:0400b800fc02000046
:020000040000fa
:0400bc00fc02000042
:020000040000fa
:0400c000fc0200003e
:020000040000fa
:0400c400fc0200003a
:020000040000fa
:0400c800fc02000036
:020000040000fa
:0400cc00fc02000032
:020000040000fa
:0400d000fc0200002e
:020000040000fa
:0400d400fc0200002a
:020000040000fa
:0400d800fc02000026
:020000040000fa
:0400dc00fc02000022
:020000040000fa
:0400e000fc0200001e
:020000040000fa
:0400e400fc0200001a
:020000040000fa
:0400e800fc02000016
:020000040000fa
:0400ec00fc02000012
:020000040000fa
:0400f000fc0200000e
:020000040000fa
:0400f400fc0200000a
:020000040000fa
:0400f800fc02000006
:020000040000fa
:0400fc00fc02000002
:020000040000fa
:04010000fc020000fd
:020000040000fa
:04010400fc020000f9
:020000040000fa
:04010800fc020000f5
:020000040000fa
:04010c00fc020000f1
:020000040000fa
:04011000fc020000ed
:020000040000fa
:04011400fc020000e9
:020000040000fa
:04011800fc020000e5
:020000040000fa
:04011c00fc020000e1
:020000040000fa
:04012000fc020000dd
:020000040000fa
:04012400fc020000d9
:020000040000fa
:04012800fc020000d5
:020000040000fa
:04012c00fc020000d1
:020000040000fa
:04013000fc020000cd
:020000040000fa
:04013400fc020000c9
:020000040000fa
:04013800fc020000c5
:020000040000fa
:04013c00fc020000c1
:020000040000fa
:04014000fc020000bd
:020000040000fa
:04014400fc020000b9
:020000040000fa
:04014800fc020000b5
:020000040000fa
:04014c00fc020000b1
:020000040000fa
:04015000fc020000ad
:020000040000fa
:04015400fc020000a9
:020000040000fa
:04015800fc020000a5
:020000040000fa
:04015c00fc020000a1
:020000040000fa
:04016000fc0200009d
:020000040000fa
:04016400fc02000099
:020000040000fa
:04020800fc020000f4
:020000040000fa
:04020c00fc020000f0
:020000040000fa
:04021000fc020000ec
:020000040000fa
:04021400fc020000e8
:020000040000fa
:04021800fc020000e4
:020000040000fa
:04021c00fc020000e0
:020000040000fa
:04022000fc020000dc
:020000040000fa
:04022400fc020000d8
:020000040000fa
:04022800fc020000d4
:020000040000fa
:04022c00fc020000d0
:020000040000fa
:04023000fc020000cc
:020000040000fa
:04023400fc020000c8
:020000040000fa
:04023800fc020000c4
:020000040000fa
:04023c00fc020000c0
:020000040000fa
:04024000fc020000bc
:020000040000fa
:04024400fc020000b8
:020000040000fa
:04024800fc020000b4
:020000040000fa
:04024c00fc020000b0
:020000040000fa
:04025000fc020000ac
:020000040000fa
:04025400fc020000a8
:020000040000fa
:04025800fc020000a4
:020000040000fa
:04025c00fc020000a0
:020000040000fa
:04026000fc0200009c
:020000040000fa
:04026400fc02000098
:020000040000fa
:04026800fc02000094
:020000040000fa
:04026c00fc02000090
:020000040000fa
:04027000fc0200008c
:020000040000fa
:04027400fc02000088
:020000040000fa
:04027800fc02000084
:020000040000fa
:04027c00fc02000080
:020000040000fa
:04028000fc0200007c
:020000040000fa
:04028400fc02000078
:020000040000fa
:04028800fc02000074
:020000040000fa
:04028c00fc02000070
:020000040000fa
:04029000fc0200006c
:020000040000fa
:04029400fc02000068
:020000040000fa
:04029800fc02000064
:020000040000fa
:04029c00fc02000060
:020000040000fa
:0402a000fc0200005c
:020000040000fa
:0402a400fc02000058
:020000040000fa
:0402a800fc02000054
:020000040000fa
:0402ac00fc02000050
:020000040000fa
:0402b000fc0200004c
:020000040000fa
:0402b400fc02000048
:020000040000fa
:0402b800fc02000044
:020000040000fa
:0402bc00fc02000040
:020000040000fa
:0402c000fc0200003c
:020000040000fa
:0402c400fc02000038
:020000040000fa
:0402c800fc02000034
:020000040000fa
:0402cc00fc02000030
:020000040000fa
:0402d000fc0200002c
:020000040000fa
:0402d400fc02000028
:020000040000fa
:0402d800fc02000024
:020000040000fa
:0402dc00fc02000020
:020000040000fa
:0402e000fc0200001c
:020000040000fa
:0402e400fc02000018
:020000040000fa
:0402e800fc02000014
:020000040000fa
:0402ec00fc02000010
:020000040000fa
:0402f000fc0200000c
:020000040000fa
:0402f400fc02000008
:020000040000fa
:0402f800fc02000004
:020000040000fa
:0402fc00fc02000000
:020000040000fa
:04030000fc020000fb
:020000040000fa
:04030400fc020000f7
:020000040000fa
:04030800fc020000f3
:020000040000fa
:04030c00fc020000ef
:020000040000fa
:04031000fc020000eb
:020000040000fa
:04031400fc020000e7
:020000040000fa
:04031800fc020000e3
:020000040000fa
:04031c00fc020000df
:020000040000fa
:04032000fc020000db
:020000040000fa
:04032400fc020000d7
:020000040000fa
:04032800fc020000d3
:020000040000fa
:04032c00fc020000cf
:020000040000fa
:04033000fc020000cb
:020000040000fa
:04033400fc020000c7
:020000040000fa
:04033800fc020000c3
:020000040000fa
:04033c00fc020000bf
:020000040000fa
:04034000fc020000bb
:020000040000fa
:04034400fc020000b7
:020000040000fa
:04034800fc020000b3
:020000040000fa
:04034c00fc020000af
:020000040000fa
:04035000fc020000ab
:020000040000fa
:04035400fc020000a7
:020000040000fa
:04035800fc020000a3
:020000040000fa
:04035c00fc0200009f
:020000040000fa
:04036000fc0200009b
:020000040000fa
:04036400fc02000097
:020000040000fa
:10040000cf8320000e7f24000e0188000000000032
:10041000000020000000e000020032000001200087
:100420002002880014000700b70007000000e00069
:1004300003003a00e07a20000100200002003700ab
:100440000000200001002000810f70000100320038
:1004500014000700000020000000e000020032004d
:1004600000000200000000006c0702000000000015
:100470000040da000000fe004440a900c003200054
:100480000000e0000300320000002000a00188000e
:100490004440a800000006008a1f78008b1f7800e7
:1004a0000000060091018800800478000000eb0045
:1004b0001a003700e284440032a0b4009905ba0063
:1004c000e284440032a0b4009906ba00e2844400f9
:1004d00032a0b4000006eb00476fde00fd07b2005b
:1004e000636ce10003003a00ebff07000000eb0043
:1004f0000a003700606ce10004003a00005deb0088
:100500008b05e900fdff3e00040037006168e10053
:10051000010032000086eb000b00070019c7ba008b
:100520001905ba000e04e00003003a000a00e000da
:10053000e0ff3a0000000600fe07b2009e018800be
:100540008a047800f5ff3700395dba008b05e900b1
:100550000c003200295dba008b05e900080032006a
:100560000c00e00003003a00e284440032a0b40032
:10057000f5ff370019ddba008b05e900faff3a00f4
:100580008904e800e184440032a0b40000000600c1
:100590003600f800809fbe00829fbe00849fbe0090
:1005a000869fbe003400f80000002000a0018800f3
:1005b0000000fa0085a0a900111180000020200091
:1005c000008060000000e00003003a009580a80071
:1005d00014020700201188000080fa003400f9009e
:1005e0004f03be004f02be004f01be004f00be00d1
:1005f0003600f900004006000040da000000fe006e
:100600000a00fa00e20f500034003e00d0418000a2
:10061000e10f500003003200e20f500011003a00d9
:100620000c003700032220000300e00001003a0024
:100630000040da002002e200020035002822ef002c
:1006400021e2a8002342ab000d003a002342a8009b
:100650000b003700032320000300e00001003a00f4
:100660000040da003002e200020035003822ef00dc
:1006700031e2a8003342ab0001003a003342a80047
:10068000820178000b0037003102fb00e10f5000bf
:1006900004003a002322ab00feff3a002411880038
:1006a000030037003322ab00feff3a00a41188009c
:1006b0008301e9000300e000f3ff3a00e10f50007e
:1006c00003003a002302ab00feff32000b003700ac
:1006d0003302ab00feff3200080037003300200079
:1006e000b3bf9f00c0bf9f00d1bf9f00e2bf9f006c
:1006f0006a8057009f0007006fb9970002007800da
:100700000080fa000000060000000500889fbe007f
:100710000004be00050037000000fb0089007800df
:1007200012000700e10f400004003200384078005a
:100730000004e000f8ff3a000000eb004f04be00a8
:1007400000000600881f7800a1812000efff07004d
:1007500000047800a1812000a00020000300070011
:10076000080078004f04780000000600889fbe0053
:1007700001047800b80090008084eb000118a30009
:100780003a003200180190000198a30002003a00dc
:100790000200e00035003a000190a000310498000a
:1007a00080047800f90fb2000200e00002003a0075
:1007b00028009000000c7800ea8f540005003a00f1
:1007c0000178a30003003a0088007800d0002000e0
:1007d000e6ff070018009000d8009000810f50003d
:1007e0000b0032000000e8001004980018007800a8
:1007f00009487800000ce80011c0b30040832000d5
:1008000001487800ea8f540018003a0005003700cc
:1008100088007800094078001700070080047800fd
:1008200012003700380090000088a3000f0032004b
:1008300018019000a80090004800900070ff070089
:1008400098009000810f50000400320038009000a2
:100850000003b300300498008084eb000000eb003c
:100860001004980028009000000c7800090078001f
:100870004f04be00000006000200fa00889fbe0080
:10088000a0ff9f0001047800380090000068a300da
:1008900033003a00e200600005003a000003b300b4
:1008a00030049800110498000080eb002e003700ff
:1008b000d80490000900e00006003a001200200071
:1008c000e6805700480090004dff0700190498008b
:1008d00023003700a80090000100e00008003a0063
:1008e0007183200021049800010c78002100200071
:1008f00051049800110498000030a00030049800c2
:1009000018019000a8009000480090003cff0700ec
:10091000280090008080eb0011049800aff8970049
:1009200001487800000ce8002ff89700ea4f5000cb
:100930000b003a00380090000088a3000800320045
:1009400018019000a8009000480090002cff0700bc
:100950000000eb0010049800a8009000010c780043
:10096000aff897000100fb004f04be000080fa00c2
:0c0970000000060000c0da0000000600d5
:020000040000fa
:10097c005374000061720000742000004269000092
:10098c007420000065720000726f0000720000009d
:10099c004461000074610000204200006974000092
:1009ac0020650000727200006f72000000500000a1
:1009bc00617200006974000079200000657200000b
:1009cc00726f000072000000537400006f70000022
:1009dc002042000069740000206500007272000063
:0809ec006f7200000000000022
:020000040000fa
:1009f4000800fa0020079800310798000000eb0077
:100a0400000f78003e0090000000e00009003a006a
:100a14002e0090000000e00003003a000000eb000c
:100a2400100798000b0037001000200010079800f2
:100a3400080037002e0090000000e00003003a0098
:100a4400200020001007980002003700300020002a
:100a54001007980000408000e20f50003a00320076
:100a6400e20f500005003e000000e00008003200e4
:100a7400e10f500015003200b8003700e30f5000ba
:100a840069003200e40f500098003200b3003700d0
:100a94001e009000e10f5000b2003a001000200048
:100aa4000040880010002000104088001000200042
:100ab400204088000628ef00900020004040880075
:100ac4000a28ef000c28ef00b10037001040800026
:100ad4000000e800104088001e009000e10f500064
:100ae40003003a00204080000000e8002040880015
:100af4001e009000e20f500003003a0030408000d6
:100b04000000e8003040880010408000f30f5000df
:100b14009600340020408000ee0f500006003400a0
:100b240020002000004088000228ef000428ef0085
:100b34000628ef00960037000028ef00e04b28005d
:100b4400fffe070092003700104080000000e8001c
:100b5400104088001e009000e10f500003003a008e
:100b6400204080000000e800204088001e00900023
:100b7400e20f500003003a00304080000000e8001b
:100b84003040880010408000f30f5000790034009a
:100b940020408000ee0f50000700340040408000e9
:100ba4000000e900404088000228ef000428ef001c
:100bb4000628ef001600370030408000ee0f50008a
:100bc4001000340040408000110020008008dd0047
:100bd4006040800001007000604088004040800058
:100be4000000e90040408800504080000000e80018
:100bf400504088000228ef000428ef000628ef0088
:100c0400030037000028ef00e04c2800ccfe07006a
:100c1400404080000000e00058003d00300020000b
:100c2400004088005a003700104080000000e800af
:100c3400104088001e009000e10f500003003a00ad
:100c4400204080000000e800204088001e00900042
:100c5400e20f500003003a00304080000000e8003a
:100c64003040880010408000f30f500045003400ed
:100c74005040800061006000004078000004e00003
:100c84000d00320030408000ee0f500006003400aa
:100c940040002000004088000228ef000428ef00f4
:100ca4000628ef003a0037000028ef00d04d280056
:100cb400a3fe07003600370020408000ee0f5000ee
:100cc4000600340040002000004088000228ef00a5
:100cd4000428ef000628ef002d0037000028ef005d
:100ce400d04d280096fe07002900370010408000f0
:100cf4000000e800104088001e009000e10f500042
:100d040003003a00204080000000e80020408800f2
:100d14001e009000e20f500003003a0030408000b3
:100d24000000e8003040880010408000f30f5000bd
:100d34001600340020408000ee0f50000300340001
:100d440010002000000f780002003700a04e280099
:100d54007bfe07000028ef000d0037000028ef009d
:100d64000b003700000000000900370000000000fd
:100d740007003700000000000500370000000000f5
:100d840003003700000000000100370000000000ed
:100d94001e0078000000e000040032000000eb00b8
:100da400000f780060408000010037000000eb0075
:100db4000080fa00000006000000fa002143a900a8
:100dc40050c0b30024e3b7002043a8003003a800b8
:100dd4002c03a90001198000f0f12f0000806000ad
:100de4000060a0000019880021e3a8000080fa0038
:100df400000006000000fa002023a9000080fa0089
:100e0400000006000000fa0000198000004078008d
:100e1400614060000080fb000080fa0000000600d2
:100e24000000fa0000198000610060000000e0008a
:100e3400030032002003a9000018800001003700dd
:100e4400000028000080fa00000006000000fa00fc
:100e5400e0012000303a8800213a8000f0f32f00ae
:100e640000806000203a8800213a800000fe2f00b4
:100e740000806000203a88003200200080072000b3
:100e8400a10920003374200080497800814978004a
:100e940082497800120020006004200071052000bf
:100ea40023742000804978008149780082497800c1
:100eb40000000000113a80000000270080806000dc
:100ec40000002300808f5000faff3a000080fa00ef
:100ed400000006000000fa00dcff0700b6ff070070
:100ee40090a620007008880013e1a800c802a8009a
:100ef400c8c2a90040012000401188002062a90056
:100f040021e2a8000111800090ff2f000080600002
:100f1400001188002002a9002342a8002135800086
:100f240000fe2f00008060006000b30020358800c0
:100f340031368000f00f2e008080600000302000e9
:100f4400010070003036880081e0a80085a0a90067
:080f540095a0a800ffff370083
:020000040000fa
:100f5c00000800000e000000000000000e08000059
:100f6c0026000000020000003508000000350800d3
:100f7c0009000000000200003708000000370800dc
:100f8c000e02010000000000000000000000000044
:100f9c0006020200000000000e08000034080000e9
:100fac0006000000000000003a08000002000000eb
:0c0fbc0002000000010000000000000026
:020000040000fa
:0200000401f009
:04000c008000000070
:020000040000fa
:0200000401f009
:040010006500000087
:020000040000fa
:0200000401f009
:040014005f00000089
:020000040000fa
:0200000401f009
:04001c00dfff000002
:00000001FF
